:02000004080AE8
:1000000000000A08FC6A0A08000006000600050154
:080010000402BD040000000021
:10001800F8610A0809480A4908B5884205D0094A1A
:10002800824202D0121A05F0C5FC0748074A00218F
:10003800121A05F0CAFC064808BD00BF00030020DC
:10004800F4690A08E0030020E0030020DC0A00202D
:10005800DC0A002070B502F04FFD074B074C1E4626
:10006800E41AA4080025A54204D056F8253098477C
:100078000135F8E770BD00BFAC690A08E4690A08F1
:1000880000F06EBC08B500F04DFCBDE8084002F079
:10009800F5BC01F079BB01F07FBB0078B0FA80F0C5
:1000A8004009704701230370704710687047036860
:1000B8001847012A02D0022A02D004E0016002E0B7
:1000C8000B6800B10360002070470000014800F091
:1000D8000DBF00BF48040020436913B183690C3089
:1000E8001847704713B504460021084601F0F6F892
:1000F80002A90023204641F8043D01F007F9019CBC
:100108000CB1012323710021012001F0E7F82CB183
:10011800236820469B6898470023237102B010BDCE
:1001280038B51D4B05461A681C46022A03DD1B49D3
:1001380002F03EFAD0B92368012B2ADC1849284678
:1001480002F036FA28B302F0A5FB164902F029F8A6
:1001580001210A2002F031FD4FF4FA7001F05CFB36
:1001680000210A2002F029FD002038BD02F092FB90
:100178000D4902F016F801210A2002F01EFD4FF485
:10018800FA7001F049FB00210A2002F016FD012057
:1001980038BD4FF0FF3038BD1C0300207E620A08CE
:1001A80020620A083E620A0826620A0838B50F4922
:1001B800054602F0FDF9044618B10D4B01201870F0
:1001C80038BD0C49284602F0F3F918B1084B20460F
:1001D8001C7038BD0849284602F0EAF910B1044BF2
:1001E800187838BD4FF0FF3038BD00BF88640A0862
:1001F800A404002056620A085A620A0810B5044688
:1002080003689B689847A368013BA3602BB92368E0
:100218002046BDE81040DB68184710BD1FB50A4BE3
:1002280002A81B78094A8DF8003009493C2301F0DF
:1002380089FC039828B14368013B43600BB9FFF779
:10024800DDFF05B05DF804FBE403002061620A08E5
:1002580067620A0810B58368044613B10322014691
:100268009847204610BD07B58068002338B18DE84F
:100278000A00022101F052F8B0FA80F0400903B0F8
:100288005DF804FB38B5104B044603608368A3B1DE
:100298006FF000410022FFF7E6FF0021A06801F09F
:1002A8004DF8237903F0FF0513B101F00FF8F8E7D3
:1002B8002946A06801F022F8A56004F10C00FFF7B8
:1002C800C9FF204638BD00BF14620A0810B50446AD
:1002D800FFF7D8FF20461C2102F0FDFC204610BD88
:1002E80037B5002002F082FC0546012002F07EFCB2
:1002F800012D044622D1002849D12E4B1A68012A23
:1003080056DD1D602C492D4D2D4802F040F902F0B4
:10031800C1FA2C4901F045FF224621462846FFF73D
:10032800A2FFA868002843D06FF00043009301940F
:1003380023462246214600F0F1FF39E0002D37D14F
:10034800A8B91C4B1A68022A32D002221E491C483E
:100358001A6002F01CF902F09DFA1C4901F021FF15
:1003680022466FF000411548FFF77DFF20E0012885
:100378001ED1104B1A68022A1ADC032214491048AD
:100388001A6002F004F902F085FA12490BE001281C
:100398000ED1114B0022114909481A7002F0F7F8E2
:1003A80002F078FA0E4903B0BDE8304001F0F9BE1A
:1003B80003B030BD1C0300207E620A08A804002098
:1003C8000404002072620A0892620A0883620A081A
:1003D800A9620A089D620A08A4040020B0620A08FB
:1003E800BF620A081FB50A4B02A81B78094A8DF894
:1003F800003009493C2301F0A5FB039828B1436864
:10040800013B43600BB9FFF7F9FE05B05DF804FB4B
:10041800E403002061620A08D4620A0800000000B0
:10042800D0B51BA3D3E900231F49204CD1E9000113
:1004380004F0D8FB18A3D3E9002304F021FA0646F8
:100448000F460320002102F0B8FB032000F086FFCE
:1004580023680A205A6DB3F85830138300F07EFFE2
:10046800236801215A6DB3F858300420538302F0F1
:10047800D0FB400804F040FB32463B4604F0B2FB98
:1004880007A3D3E9002304F0ADFB04F083FED0BD3D
:10049800333333333333E33F0000000000B8744094
:1004A8002D431CEBE2361A3F000300201C040020F9
:1004B80008B5FFF7B5FFC0F1C8001D28D4BF00205C
:1004C800012008BD38B5054600F058FF084C2368E0
:1004D800C01AA8420AD300F051FF2060FFF7E8FFD6
:1004E800044B10B101221A7038BD187038BD00BF16
:1004F80014040020EC0300202DE9F34100F03EFF36
:100508008A4E3368834280F00D81894C237873B911
:1005180002F0C0F9874901F031FE02F0BBF98649C3
:1005280001F02CFE854800F061FC0123237083480C
:1005380000F026FD824F002840F0CD807F4800F073
:100548002BFD054602F0A6F97E4901F017FEE81DCD
:1005580007283DD8DFE800F0352E272019120B04B4
:1005680002F098F9784901F01CFE774936E002F06C
:1005780091F9764901F015FE74492FE002F08AF9E5
:10058800734901F00EFE724928E002F083F97149BF
:1005980001F007FE6F4921E002F07CF96E4901F095
:1005A80000FE6D491AE002F075F96C4901F0F9FD99
:1005B8006A4913E002F06EF9694901F0F2FD6849F1
:1005C8000CE002F067F9674901F0EBFD654905E0C9
:1005D80002F060F9644901F0E4FD6349634801F001
:1005E800D6FF02F057F9624901F0C8FD02F052F94E
:1005F8008046524800F0ECFC04F0A0FA01250246BF
:100608000B460095404601F0D3FE4C4800F0E0FC54
:10061800584904F03DFF02F0ABFC04F08FFA0022C9
:10062800554B04F009FC554BC3E9000102F032F9BF
:10063800534901F0A3FD02F02DF980463F4800F030
:10064800ADFC504904F01AFE04F078FA0095024611
:100658000B46404601F0ACFE384800F09FFC494983
:1006680004F00CFE434904F013FF02F081FC04F08F
:1006780065FA0022404B04F0DFFBC7E9000102F0F5
:1006880009F9414901F07AFD02F004F980462B4846
:1006980000F0BAFC022502460B464046009501F0E0
:1006A80087FE02F0F7F8394901F068FD02F0F2F828
:1006B8008046224800F010FD009502460B46404651
:1006C80001F076FE0023237000F058FE00F512209A
:1006D80000F5F8603060D7E9004500222C4B204631
:1006E800294604F0F1FC38B12A4E337893B9FFF764
:1006F80079FE0123337015E00022274B2046294656
:1007080004F0F6FC70B1234B1B785BB1214B00223F
:100718001A7007E00022204B2046294604F0E8FC26
:100728000028F3D102B0BDE8F08100BFE803002043
:1007380020040020E0620A08E3620A084804002056
:100748000003002008630A0816630A0819630A08E8
:1007580030630A084B630A086B630A0887630A0850
:1007680099630A08B5630A08C9630A0834040020B3
:10077800D7630A080000204100002440100300202D
:10078800E6630A0866669640FA630A080C640A0873
:1007980000000840440400200000144030B585B033
:1007A80000F0ECFD104C2368C01A104B1B689842EF
:1007B80017D9002000F080FF02F06CF8054601F020
:1007C80066FF0146684601F01FFF009B084A0021AA
:1007D800284601F0FBFD684601F065FE00F0CEFDFD
:1007E800206005B030BD00BF1804002018030020A9
:1007F80023640A0870B50E461446054600F0BEFD8F
:100808003219B0FBF2F303FB12008642C8BF002185
:10081800A8B2D8BF0121BDE8704002F0CEB90000EF
:1008280030B54FF4FA7085B0FFF74CFE234B244CDB
:100838001D78236835B3012B3DDD032B214D02D1F3
:1008480000F09CFD286000F099FD2B68C01A1E4B33
:100858001B6898420CD21D491D4801F098FE4FF4C0
:10086800FA720223114607202360FFF7C3FF22E034
:100878001849174801F08BFE01210720216002F07A
:100888009CF918E0022B16DC1349114801F07FFE91
:10089800032329460720236002F08FF90F4B1B78AA
:1008A8004BB10F49684601F045FE6846FFF738FC32
:1008B800684601F0F8FD05B030BD00BFEC0300202C
:1008C80008030020F00300202003002092620A0899
:1008D800F403002039640A0840640A08A4040020CC
:1008E80020620A0810B50E4C00221146606800F01C
:1008F80013FF024630B100F0CFFE80B964224FF4F6
:100908007A7107E00146606800F006FF38B94FF4D5
:10091800FA721146BDE810400620FFF76BBF10BD04
:10092800B009002008B5FFF7DDFFFFF7E5FDFFF789
:10093800D7FCFFF775FFBDE80840FFF72FBF0000A1
:1009480007B50823ADF80030044B042201936B4629
:1009580000F08AFE03B05DF804FB00BFB3000A088C
:1009680010B58CB001F096FF4FF4165101F078FFE6
:1009780001F090FF04461C230CA820F81C3D002120
:1009880000F03EFE07A901A801F0D4FD019B324A00
:1009980001212046314C01F019FD01A801F083FD29
:1009A80001F078FF23682E4A012101F00FFD01F0C4
:1009B80071FF2C4901F0F5FB21462B48FFF7C0FFDA
:1009C8002A492B48FFF7BCFF0023092229492A4856
:1009D80000F04AFE002309222849294800F044FE75
:1009E800284C29492948FFF7ABFF29492948FFF72F
:1009F800A7FF294A2949204600F06CFF284A2949BF
:100A0800204600F067FF01210A2002F0C5F8012105
:100A1800072002F0C1F80121062002F0BDF80121EB
:100A2800032002F0B9F80021042002F0B5F80321F0
:100A3800002002F0B1F80321012002F0ADF80021F6
:100A48000A2002F0BAF8184B1B685A6DB3F85830F0
:100A580053830CB010BD00BF48640A08240400206A
:100A68005B640A0870640A0880640A083404002079
:100A78008B640A0800030020D4620A0810030020CF
:100A880096640A08B1180A08040400209F640A083A
:100A9800F4030020AF640A08BC640A0829010A08A4
:100AA800CA640A08B5010A081C0400202DE9F041AF
:100AB8003F4B88B000271F7000F078FC3D4E3E4B3E
:100AC800DFF8388118603D4D3D4C3146404601F015
:100AD80031FD4046DFF828812A46214602F0F6F823
:100AE8003849404601F026FD4046DFF818812A467D
:100AF800214602F0EBF83146404601F01BFD404626
:100B0800DFF804812A46214602F0E0F831464046E3
:100B180001F010FD2A462146404602F0D7F8162279
:100B28000221294B294800F056F9012000F048FD20
:100B380000F024FC264B04AE186000F01FFC254B87
:100B4800254C186000F01AFC244B02AA1860244BAC
:100B58002771049396E80300224B82E80300236080
:100B680004F10C0393E8030086E8030092E803000D
:100B780083E803001C4BA7606361A3691B4A0793C2
:100B88001B4B1C49A361012300930197234604F1E1
:100B98000800069700F0AAFB3046FFF75BFB2A46E1
:100BA8001549204602F092F808B0BDE8F08100BF70
:100BB800E4030020D8640A081C040020E003002095
:100BC800AF240A08E7640A08D5000A084804002088
:100BD80018040020F0030020A804002014040020BA
:100BE80025020A0814620A08BB000A08ED000A0870
:100BF800B7000A08A0BB0D008D020A0834040020C3
:100C080024040020F40300200404002003685A6828
:100C1800986812F0010F4FEA620218BF81581B68EA
:100C2800104418BFCB58184770B5044600F09EFB17
:100C380041F27072A36BA063C31A93420BD96FF091
:100C48000103E362032384F82930B4F84400BDE8C3
:100C5800704001F029B994F8292002F0FF0112B17F
:100C6800012920D070BD402B03D8A26BD31AA363EF
:100C780070BDA3F17E02492ADDB205D8236C5A1C47
:100C880022641D70012371E0B4F8440001F00CF9EE
:100C9800226C6FF00203E362032384F82930531CAB
:100CA8002364157070BDA3F13D025D2A4FD894F8F6
:100CB80036106E2B214491F830204FEA4202D2B20E
:100CC80081F8302008D994F83620224492F8301060
:100CD80041F0010182F83010226CDBB2511C216412
:100CE800137094F8353003F0FF054BBB072384F8E5
:100CF800353094F836300133DBB2052B84F83630C2
:100D080036D1B4F8440001F0CFF894F8306094F884
:100D1800312094F83230324494F83300134494F874
:100D280034100344DBB28B4202D04FF0FF331BE098
:100D38000223E56284F82930012384F83C3070BD31
:100D480094F83530013BDBB284F8353070BD606C07
:100D5800092B80B204D801F0A7F86FF0050303E06F
:100D680001F0A2F86FF00303E362032384F829304B
:100D780070BD022A38B5044605D0032A0FD0012ACF
:100D880011D10B6809E00C200D68FFF782F90346C2
:100D980018B195E8070083E80700236003E00C21F9
:100DA800006801F098FF002038BD38B504468DB2C0
:100DB800416482640121284601F0EEFE01212846A3
:100DC80001F0FBFE0023E364032384F829306FF06D
:100DD8000603E36238BD10B504460023FFF7E5FFBC
:100DE800012384F85030204610BD000070B5044639
:100DF80086B000F0C3FA94F8503023B9E36CC31AF4
:100E0800B3F5FA6F0AD394F82930032B08D094F875
:100E18002930022B04D06FF004005FE002205DE06F
:100E280000231A4684F85030E06484F82930E254EC
:100E38000133292B4FF00005F9D1072384F83050EE
:100E480084F8315084F8325084F8335084F83450A0
:100E580084F8353000236365A3650121B4F84400A4
:100E6800246484F8365001F097FE2946B4F844000B
:100E780001F0A3FEA36C0B2B03D1122000F0CCFCD5
:100E880003E040F2DC5000F069FA0021B4F84400B5
:100E980001F082FE00F06AFA0025A0630C20B4F885
:100EA80044600495FFF7F5F818B10D4B846080E8AD
:100EB80028000C4B029005930B4B0222049300234D
:100EC800009302A94FF0FF33304601F031F8049B3C
:100ED8001BB102A9032208469847012006B070BD3D
:100EE800310C0A08150C0A087B0D0A087047000027
:100EF80010B5836C04460B2B30D039DB153B012B26
:100F080036D890F8300094F8313003EB002080B2E6
:100F180003F002FE18A3D3E9002303F063FE04F0F4
:100F280059F994F83230606594F8320013F0800F64
:100F380094F833301BBF00F07F0003EB002003EB75
:100F48000020404208BF80B203F0E6FD0AA3D3E9BF
:100F5800002303F047FE04F03DF908E090F8300064
:100F680004F03EFA606594F8320004F039FAA0659E
:100F7800002384F83C3010BD9A9999999999B93F02
:100F880090F82930022B05D090F82900033818BFB3
:100F98000120704700207047C06A704710B590F86C
:100FA80029300446032B03D1C06A04F01DFA10BD92
:100FB80090F82930022B06D190F83C300BB1FFF79E
:100FC80097FFA06D10BD014810BD00BF0000A0C074
:100FD80010B590F829300446032B03D1C06A04F0F9
:100FE80003FA10BD90F82930022B06D190F83C3056
:100FF8000BB1FFF77DFF606D10BD014810BD00BF4C
:101008000000A0C0000000002DE9F84390F8293046
:101018000446032B04D1C06A03F07EFDBDE8F883C3
:1010280090F82930022B46D190F83C300BB1FFF7ED
:101038005FFFA06D03F082FD0646606D0F4603F06A
:101048007DFD0022224B03F0F7FE01F0B5FF1CA343
:10105800D3E9002304460D463046394603F0C2FD65
:1010680019A3D3E90023804689463046394603F060
:1010780007FC02460B464046494603F0DDFE224681
:101088002B4603F0FDFB10A3D3E9002306460F46C9
:1010980003F0A8FD324604460D4609A1D1E9000136
:1010A8003B4603F0EBFB02460B462046294603F07D
:1010B800C3FEBDE8F88300200649BDE8F88300BFF9
:1010C8004C378941604531406666666666B66D4054
:1010D80000005940000014C02DE9F04790F829306D
:1010E8008246032B04D1C06A03F016FDBDE8F087E1
:1010F80090F82930022B40F0AB8090F83C300BB1CF
:10110800FFF7F6FEDAF8580003F018FD52A3D3E90A
:10111800002303F0B5FB02460B4651A1D1E90001BB
:1011280003F08AFE0022644B04460D4603F0A6FB3A
:101138004DA3D3E9002306460F4603F053FD80462E
:1011480089462046294601F0B7FF49A3D3E9002381
:1011580003F048FD42464B4603F092FB2246804688
:1011680089462B460020544903F066FE02460B468A
:101178000020514903F082FB3FA3D3E9002303F089
:1011880031FD02460B4600204C4902F017F80022B8
:10119800494B03F073FB3AA3D3E9002303F022FD84
:1011A80042464B4603F06CFB37A3D3E900230446C1
:1011B8000D463046394603F015FD02460B46002021
:1011C8003E4901F0FBFF00223B4B03F057FB30A3E5
:1011D800D3E9002303F006FD22462B4603F050FB1B
:1011E8002DA3D3E9002303F04BFB0022344B03F07B
:1011F80045FB02460B460020304901F0DFFF04465C
:101208000D46DAF8540003F099FC22462B4603F009
:10121800E9FC23A3D3E9002303F00EFE01F0CCFE82
:1012280021A3D3E9002306460F4603F0DBFC324630
:1012380004460D461EA1D1E900013B4603F01EFB02
:1012480002460B462046294603F0F6FDBDE8F08726
:1012580000201C49BDE8F087666666666612714024
:101268006666666666527740B1C403CAA69C1FC00C
:10127800CDAFE600C11C1440E3A59BC420B02640B6
:10128800B13D4236248B82BE037D224F92EE0BC0C5
:10129800630333F0EDA7803F1B549E40B40B084016
:1012A800CFA0A17F828BE33F5C8FC2F5283C6E40C4
:1012B800022B8716D98E31400000F03F00002440F1
:1012C80000000840000014C000F070B808B5024BD8
:1012D8001B68DB68019308BDD001060808B5024BFE
:1012E8001B68DB69019308BDD001060808B5024BED
:1012F8001B681B6A019308BDD001060808B5024B9C
:101308001B685B6A019308BDD001060808B5024B4B
:101318001B689B6A019308BDD001060808B5024BFB
:101328001B68DB6A019308BDD001060808B5024BAB
:101338001B681B6B019308BDD001060808B5024B5A
:101348001B681B6F019308BDD001060808B5024B46
:101358001B685B68019308BD9C01060808B5024B31
:101368001B68DB68019308BD9C01060808B5024BA1
:101378001B681B69019308BD9C01060808B5024B50
:101388001B685B69019308BD9C01060808B5024B00
:101398001B68DB69019308BD9C01060808B5024B70
:1013A8001B689B6D019308BD9C01060808B5024B9C
:1013B8001B681B68019308BDB001060808B5024BFD
:1013C8001B689B68019308BDB001060808B5024B6D
:1013D8001B68DB68019308BDB001060808B5024B1D
:1013E8001B681B69019308BDB001060808B5024BCC
:1013F8001B685B69019308BDB001060808B5024B7C
:101408001B689B69019308BDB001060808B5024B2B
:101418001B68DB69019308BDB001060808B5024BDB
:101428001B68DB6C019308BDB001060808B5024BC8
:101438001B681B6E019308BDAC01060808B5024B7A
:101448001B685B6E019308BDAC01060808B5024B2A
:101458001B689B6E019308BDAC01060808B5024BDA
:101468001B68DB6E019308BDAC01060808B5024B8A
:101478001B681B6F019308BDAC01060808B5024B39
:101488001B685B6F019308BDAC01060808B5034BE8
:101498001B68D3F88030019308BD0000AC01060832
:1014A80008B5024B1B68DB69019308BDB401060847
:1014B80008B5024B1B681B6A019308BDB4010608F6
:1014C80008B5024B1B689B69019308BDC401060857
:1014D80008B5024B1B685B6A019308BDC401060886
:1014E80008B5024B1B689B6A019308BDC401060836
:1014F80008B5024B1B68DB6A019308BDC4010608E6
:1015080008B5024B1B681B6B019308BDC401060894
:1015180008B5024B1B685B6B019308BDC401060844
:1015280008B5024B1B689B6B019308BDC4010608F4
:1015380008B5024B1B681B6C019308BDC401060863
:1015480008B5024B1B681B68019308BDD801060843
:1015580008B5024B1B685B68019308BDD8010608F3
:1015680008B5024B1B681B69019308BDD801060822
:1015780008B5024B1B685B69019308BDD8010608D2
:1015880008B5024B1B689B69019308BDD801060882
:1015980008B5024B1B68DB69019308BDD801060832
:1015A80008B5024B1B681B6A019308BDD8010608E1
:1015B80008B5024B1B689B6C019308BDC001060867
:1015C80008B5024B1B681B6D019308BDC0010608D6
:1015D80008B5024B1B681B68019308BDA4010608E7
:1015E80008B5024B1B685B68019308BDA401060897
:1015F80008B5024B1B685B69019308BDA401060886
:1016080008B5024B1B681B6B019308BDA4010608B3
:1016180008B5024B1B68DB6C019308BDA4010608E2
:1016280008B5024B1B685B6D019308BDA401060851
:1016380008B5024B1B689B6D019308BDA401060801
:1016480008B5034B1B68D3F89030019308BD000020
:10165800A401060808B5034B1B68D3F89C30019316
:1016680008BD0000A401060808B5024B1B681B68EA
:10167800019308BDCC01060808B5024B1B685B68DE
:10168800019308BDCC01060808B5024B1B689B688E
:10169800019308BDCC01060808B5024B1B685B69BD
:1016A800019308BDCC01060808B5024B1B681B6AEC
:1016B800019308BDCC01060808B5024B1B68DB6A1C
:1016C800019308BDCC01060808B5024B1B681B6BCB
:1016D800019308BDCC01060808B5024B1B68DB6BFB
:1016E800019308BDCC01060808B5024B1B685B686E
:1016F800019308BDC801060808B5024B1B689B6822
:10170800019308BDC801060808B5024B1B68DB68D1
:10171800019308BDC801060808B5024B1B681B6980
:10172800019308BDC801060808B5024B1B685B6930
:10173800019308BDC801060808B5024B1B689B69E0
:10174800019308BDC801060808B5024B1B68DB6990
:10175800019308BDC801060808B5024B1B681B6A3F
:10176800019308BDC801060808B5024B1B681B6B2E
:10177800019308BDC801060808B5024B1B685B6BDE
:10178800019308BDC801060808B5024B1B681B6811
:10179800019308BDA001060808B5024B1B685B68E9
:1017A800019308BDA001060808B5024B1B689B6899
:1017B800019308BDA001060808B5024B1B681B6908
:1017C800019308BDA001060808B5024B1B689B6978
:1017D800019308BDA001060808B5024B1B685B6AA7
:1017E800019308BDA001060808B5024B1B68DB6A17
:1017F800019308BDA001060808B5024B1B681B6BC6
:10180800019308BDA001060808B5024B1B68DB6BF5
:10181800019308BDA00106080021FFF7E9BE10B535
:10182800836804460BB901F058FAC3689847A3685F
:101838001BB103222146204698472046BDE81040A8
:10184800102101F048BA70470020704710B50446CF
:10185800102101F040FA204610BD08B508B1FFF785
:10186800F5FF08BD38B5C468ECB12378022B02D166
:10187800E068FFF791FF656835B12846FEF7EAFC96
:101888001021284601F027FAA56835B12846FEF749
:10189800E1FC1021284601F01EFA2046BDE8384038
:1018A800142101F018BA38BD10B588B0044668464E
:1018B80000F040FE694604A800F05EFE04A8A047B8
:1018C800044604A800F0EFFD684600F0ECFD204651
:1018D80008B010BDF0B507460E46154685B0102471
:1018E80022460021684604F070F800226946104636
:1018F800ADF80040029703960195FFF7BDFE05B0CD
:10190800F0BD38B5046805467CB16368013B636087
:101918005BB9236820469B689847A368013BA3608E
:101928001BB923682046DB689847284638BD13B59D
:10193800044691E8050000234B600B60206062605C
:1019480001A801930093FFF7DCFF204602B010BD09
:101958000B68036013B15A6801325A607047F7B5D3
:101968000C4606460F4654F8043B02AD45F8083DC0
:10197800214601A8FFF7ECFF29463046FFF7D7FFBD
:1019880001A8FFF7BEFF2046FFF7BBFF3846082136
:1019980001F0A1F9304603B0F0BD13B50B4604467B
:1019A80003C88DE8030093E8030084E803009DE87A
:1019B800030083E8030002B010BD826810B50AB9BD
:1019C80001F08BF9C368BDE81040184708B50068F6
:1019D80000F11001FFF7F1FF08BD826810B50AB9E0
:1019E80001F07BF9C368BDE81040184708B50068E6
:1019F80000F11001FFF7F1FF08BD38B5002383603F
:101A08008B6804460D462BB102229847EB68E360C9
:101A1800AB68A360204638BD2DE9F0414FF69C73B2
:101A280004684FF0020086B0B1F904208B800023CF
:101A38000F688DF800300B60D4E84F1F994203D12E
:101A4800C4E8450F002DF7D102D08DF800106CE0E6
:101A580014F10C051CBFE7602282BFF35F8F18BF2B
:101A68001F4601236370BFF35F8F04F10803002052
:101A780053E8006F43E80002002AF9D1BFF35F8FF3
:101A8800002E52D0FFF7C4FD20B129463046FFF79B
:101A980094FF43E031466846FFF7AFFFE068B4F9CA
:101AA800105008B103F0D4FF04901020ADF8145082
:101AB800FEF7EFFA054630B34FF00008C0F808808B
:101AC8001820FEF7E6FA0446C0B1C0F808800146BF
:101AD8006846FFF762FF029BA268A360039B02921D
:101AE800E268E360BDF814300392A3824FF69C735A
:101AF800ADF81430049BCDF8108023610E4B2C6098
:101B0800EB600E4BAB600498FFF746FE6846FEF7A5
:101B1800A1FB002229460A48FFF782FD3046FEF75E
:101B280099FB1021304601F0D6F83846FFF734FE0D
:101B380006B0BDE8F08100BFD5190A08351C0A08AF
:101B480027180A082DE9F04F8BB007AD4FF0000BAE
:101B58000646994614200C230F4690469DF850A03F
:101B6800C5F804B0C5F808B00793FEF792FA044622
:101B780038B180F800B080F801B0C0F804B0C0F8FF
:101B880008B00023102003940493FEF782FA28B1CA
:101B9800012343608360234BC4600360224B04909D
:101BA80008200893FEF775FA044628B1039B04A998
:101BB80040F8043BFFF7CCFE00955FFA8AF34A46EB
:101BC800414638460994FFF76FFDB8B9039B5B7827
:101BD80003F0FF0293B94FF69C7305A903A8059279
:101BE800ADF81830FFF718FF0598FFF7D5FD05A8E1
:101BF8000999FFF7B4FE06A8FFF783FE039B04A923
:101C080006A80593FFF7A4FE05A93046FFF78FFE47
:101C180006A8FFF776FE04A8FFF773FE30460BB060
:101C2800BDE8F08FF8640A08A11D0A08022AF8B571
:101C3800044606D0032A17D0012A21D10B68036075
:101C48001EE018200E68FEF724FA054650B131460A
:101C5800FFF7D3FE3069B6F9147008B103F0F8FE47
:101C68002861AF8225600BE004684CB12069FFF75A
:101C780093FD2046FEF7EEFA1821204601F02BF8D6
:101C88000020F8BD38B5002383608B6804460D46F4
:101C98002BB102229847EB68E360AB68A36020464B
:101CA80038BD022A70B5044606D0032A11D0012A8D
:101CB80018D10B68036015E014200E68FEF7E9F9E7
:101CC800054620B13146FFF7DDFF337C2B742560D4
:101CD80008E0046834B12046FEF7BCFA1421204617
:101CE80000F0F9FF002070BDF0B50C46BFF35F8F20
:101CF80087B0002350E8006F40E80032002AF9D18D
:101D0800BFF35F8F002E3FD01846FFF781FC0746D0
:101D180020B121463046FFF760FE2EE0314601A88B
:101D2800FFF7B0FF237810208DF81430FEF7B1F9D3
:101D38000546D0B187601420FEF7ABF9044678B1A8
:101D48008760014601A8FFF728FE039BA268A360ED
:101D5800049B0392E268E3609DF8143004922374B4
:101D68000A4B2C60EB600A4BAB6001A8FEF772FAD5
:101D7800002229460748FFF753FC3046FEF76AFA67
:101D88001021304600F0A7FF07B0F0BDF5190A088A
:101D9800AB1C0A0827180A0830B5044685B00D465A
:101DA80068461146FFF7DBFD7CB124B228460DB129
:101DB80003F04EFE029002A96846ADF80C40FFF70A
:101DC8002BFE0298FFF7E8FC1DE04FF00102009897
:101DD8008DF80840D0E84F3FA34203D1C0E8412F17
:101DE8000029F7D102D08DF808300CE010F10C0171
:101DF8004FF0010318BF0373BFF35F8F043000F87F
:101E0800033CFFF771FF01A8FFF77BFD05B030BD6C
:101E18007047F8B5064615460C468F18BC4206D0E2
:101E2800336814F8011B9B6830469847F6E7284644
:101E3800F8BD0022007CFFF7F9BA0021007CFFF70B
:101E4800FDBA0021007CFFF701BB0021007CFFF7F1
:101E580005BB0021007CFFF709BB10B5044614211F
:101E680000F039FF204610BD10B5044608464FF46F
:101E78007A73A360044B0021207461602360FFF72C
:101E880005FB204610BD00BF14650A080021007C30
:101E9800FFF7F4BA826810B50AB900F01EFFC368EC
:101EA800BDE810401847000070B50646FFF7AEFAC7
:101EB800074B53F826501C4635B12846FEF7CAF999
:101EC8001021284600F007FF002344F8263070BD93
:101ED800C404002038B5002383608B6804460D468F
:101EE8002BB102229847EB68E360AB68A3602046F9
:101EF80038BD0000F8B50D4B064653F820500F4684
:101F08001C4635B12846FEF7A5F91021284600F0F1
:101F1800E2FE1020FEF7BDF8054610B13946FFF77E
:101F2800D9FF44F826502846F8BD00BFC404002055
:101F3800F0B50C46054685B017461E46FFF766FA0B
:101F480021462846FFF7D6FF0446B8B100210423EE
:101F58008E4203918DF80C30B4BF0B469DF82830A3
:101F68000246A4BF8DF80E3003AB009306493B46EA
:101F78002846A8BF8DF80D60FFF740FA201C18BF4F
:101F8800012005B0F0BD00BF9D1E0A08704710B5BE
:101F98000446182100F09FFE204610BDF8B50F46F4
:101FA80000F10806051D002416F8011D0A2238460E
:101FB80000F02BF9AE42044407D0002CF4D02E21B7
:101FC800384600F0DFF80444EEE72046F8BD00008C
:101FD80010B50446044B112240F8043B002103F0DD
:101FE800F4FC204610BD00BF3C650A080346074ABA
:101FF80010B543F8042B01F1100251F8044B91423B
:1020080043F8044BF9D10A781A7010BD3C650A08E8
:10201800024A416002600422027570473C650A0862
:1020280010B59DF8084044EA032343EA024242EA15
:10203800016104234160037510BD000037B5044DEC
:1020480005609DF818500095FFF7EAFF03B030BD12
:102058003C650A08014A024B1A60704701660A0883
:102068002405002000231A464068FFF73DBB0022E4
:1020780002214068FFF748BB002211464068FFF77D
:102088003BBB002211464068FFF746BB00231A46B7
:1020980019464068FFF748BB00231A4619464068AE
:1020A800FFF74ABB002281F001014068FFF74CBBF3
:1020B80000224068FFF758BB002211464068FFF72E
:1020C8005BBB002211464068FFF746BB70B5164659
:1020D8008EB0044608A8FFF77BFF1122002103A851
:1020E80003F073FC304603F0CEFC00250A4B009544
:1020F80081B25B6803AA3046FFF75AFA20B1294635
:102108002046FFF785FF03E003A92046FFF76EFF8F
:1021180020460EB070BD00BFB0090020024B034A34
:102128001A6000225A6070472805002028660A08AD
:10213800F8B506460D468F180024BD420CD033680A
:1021480015F8011B9B6830469847002801DB0444BA
:10215800F3E7002C08BF04462046F8BD70B50546D5
:102168000C46084649B103F08EFC2B68024621460E
:102178002846BDE87040DB68184770BD08B5FFF712
:10218800EDFF08BD03689B68184738B50D21054663
:10219800FFF7F8FF0A2104462846FFF7F3FF20441B
:1021A80038BD38B50546FFF7D9FF04462846FFF77E
:1021B800ECFF204438BD012A98BF0A2230B50B46EF
:1021C8008BB000218DF824100DF12304B3FBF2F538
:1021D80005FB1233DBB2092B94BF30333733DBB244
:1021E800214604F801392B46002DEFD1FFF7B6FF41
:1021F8000BB030BD10B422B90368C9B29B6810BCDB
:102208001847D2B210BCFFF7D6BFFFF7F3BF2DE9CE
:10221800F04107460E4615462AB9BDE8F041036865
:10222800C9B29B6818470A2A02D1002901DA04E0DA
:10223800D2B2BDE8F041FFF7BEBF2D21FFF7A2FFE4
:102248002A46044671423846FFF7B5FF2044BDE8E8
:10225800F08100002DE9F8431946804610461746DC
:102268001E469DF8205002F057FF08B1474912E07A
:1022780026F000444FF0FF32454B3846214602F025
:102288004BFF68B94FF0FF32414B3846214602F008
:1022980025FF28B93F494046FFF760FFBDE8F883AE
:1022A8004FF060423C4B3846314602F02BFF08B1F4
:1022B8003A49F0E74FF06042394B3846314602F070
:1022C80003FF0028F4D1002200233846314602F0EB
:1022D800FBFE38B12D214046FFF754FF06F10046BA
:1022E800044600E004462F494FF0000900205FFA39
:1022F80089F39D4206D900222B4B02F09DFD09F17E
:102308000109F4E73A46334602F0BAFA0F460646A0
:1023180002F040FF0A22014681464046FFF74BFF84
:1023280004447DB3484602F0E7FB02460B463046BC
:10233800394602F0A3FA06460F4640461B49FFF706
:102348000DFF0444184B00223046394602F04AFC7F
:102358000F46064602F0F6FE0A220146814640462E
:10236800FFF755FF0444484602F0D6FB02460B46E9
:102378003046394602F082FA013D15F0FF0506465F
:102388000F46DFD12046BDE8F88300BF54660A082F
:10239800FFFFEF7F5C660A08FFFFEF4158660A08F7
:1023A800FFFFEFC10000E03F000024403C620A0844
:1023B80037B59DF8181005460091FFF74BFF044606
:1023C8002846FFF7E2FE204403B030BD0CB42DE9E7
:1023D800F04387B000AF07F1380454F8049B054672
:1023E8000E4623464A461421381D3C60FFF7F4F98F
:1023F800132805D8391D2846FFF7B0FE044613E018
:1024080000F1080323F00703E846ADEB030D411C78
:1024180023464A4668463C60FFF7DEF96946284687
:10242800FFF79CFE0446C5461EB12846FFF7ADFEE1
:10243800044420461C37BD46BDE8F04302B070474F
:1024480010B50446FDF706FF204610BD03480023DB
:102458008360034A034900F039BC00BF30050020FF
:10246800E003002049240A08704710B504461021EB
:1024780000F031FC204610BD70B504460E46074BEF
:102488000025036040F80C5FFEF750FF30462671C8
:10249800FFF706F8A560204670BD00BF68660A0809
:1024A8000079FFF705B810B504460068FFF774F91E
:1024B800204610BD10B50446006808B1FFF76CF956
:1024C80000232360A360636010BD38B504460D4641
:1024D80000680131FFF768F910B184E82100012094
:1024E80038BD10B50368044613B143688B4207D260
:1024F8002046FFF7EAFF20B1A3680BB922681370E2
:10250800012010BD70B50E46114604461546FFF76A
:10251800E8FF18B92046FFF7CDFF09E02A46314603
:10252800A560206803F046FA2268A3680021D15408
:10253800204670BD38B500230446036043608360BD
:1025480003730D4639B1084603F09DFA2946024641
:102558002046FFF7D7FF204638BD884210B50B4606
:10256800044607D0096819B19A68FFF7CBFF01E064
:10257800FFF7A0FF204610BD10B5044600230360F6
:10258800436083600373FFF7E8FF204610BD38B54A
:1025980005460C4641B1084603F075FA2146024645
:1025A8002846FFF7AFFF01E0FFF784FF284638BD54
:1025B80008B582680B4612B919B9012008BD11B9CE
:1025C8000368187802E0006803F030FAB0FA80F087
:1025D800400908BD4FF6FF72034B00201870588061
:1025E8009A80FEF7FDBF00BF4005002008B5002017
:1025F800FFF76AF828B1FFF74FF880F00100C0B282
:1026080008BD012008BD000037B50E4B04461B6805
:1026180002A819440C4B1B68194440F8041D03F028
:10262800D1F803F085F8054603F02DFA0023284475
:1026380000F8013C29462046FFF77CFF204603B0FE
:1026480030BD00BF500500204C05002010B500200B
:10265800FEF7A4FE044668B9FEF7BAFF01280BD1BD
:102668002046FEF7E5FF38B9FFF7C0FF30B9FFF79E
:102678000BF8F9E7012010BD002010BDFFF7B6FFE9
:102688000020FEF78BFE003018BF012010BD08B5F2
:10269800FFF7DCFFBDE80840FEF778BE024B1A687A
:1026A800024B1A60704700BF240300204805002031
:1026B80070474174704708B5007CFEF739FF20EA7F
:1026C800E07008BD08B5007CFEF70AFF20EAE0705C
:1026D80008BD08B5007CFEF713FF30EA200028BFCC
:1026E8004FF0FF3008BD08B5007CFEF701FF30EA67
:1026F800200028BF4FF0FF3008BD007CFEF708BF60
:1027080010B50446142100F0E6FA204610BD70B555
:10271800457C04460E4625B9007CFEF709FF0028D3
:1027280005DD3146207CBDE87040FEF7D1BE284665
:1027380070BD000010B504460846114600226260CC
:102748004FF47A72A260054A2074226001226274F2
:102758001A46FEF7B5FE204610BD00BFA0660A085F
:10276800007CFEF7DDBE000038B50C4D296811F07D
:10277800010411D12846FDF790FC68B1084A2146AA
:10278800084B0948FFF7D6FF2846FDF78BFC074A98
:102798000749054800F09AFA034838BDEC050020BF
:1027A800F00500206805002054050020E003002003
:1027B800B9260A0841747047704708B50021007CA3
:1027C800FEF7DEFE30EA200028BF4FF0FF3008BDDC
:1027D80008B50121007CFEF7D3FE30EA200028BFAF
:1027E8004FF0FF3008BD08B5007CFEF7C1FE20EAB7
:1027F800E07008BD08B5007CFEF7B2FE20EAE07084
:1028080008BD007CFEF7CCBE10B50446142100F0CC
:1028180062FA204610BD38B50446007C0D46FEF726
:10282800A7FE002801DC607C28B12946207CFEF741
:10283800AFFE20EAE07038BD10B50446002363609F
:102848004FF47A73A360054B084623600123217473
:1028580063741146FEF774FE204610BDD0660A0860
:102868000022007CFEF774BE10B504461422002135
:1028780003F0ABF8054B20466360054BE36040F27C
:10288800011323818123238210BD00BFF906002094
:102898007806002030B50E4D87B001A8FFF7E4FF99
:1028A800296811F0010410D12846FDF7F6FB60B144
:1028B80001AA21460748FFF7BFFF2846FDF7F2FBAC
:1028C800054A0649034800F001FA024807B030BD3E
:1028D80074060020FC070020E0030020C1270A0836
:1028E80010B504461422002103F06FF8054B20466A
:1028F8006360054BE36040F2011323818123238247
:1029080010BD00BFAC0800201408002010B50E4C04
:1029180086B001A8FFF7E4FF2368DB0710D4204640
:10292800FDF7BBFB60B101AA01210848FFF784FF4E
:102938002046FDF7B7FB064A0649044800F0C6F9E9
:10294800024806B010BD00BF1008002098080020FB
:10295800E0030020C1270A08002211464068FEF75C
:10296800DBBEF0B5164689B011220F460446002199
:1029780003A803F02AF8304603F085F800250095EF
:1029880081B27B6803AA3046FEF712FE20B12946C1
:102998002046FFF73DFB03E003A92046FFF726FB8F
:1029A800204609B0F0BD002211464068FEF7D4BEAB
:1029B800002211464068FEF7DFBE00224068FEF79D
:1029C800D3BE002281F001014068FEF7BDBE00239E
:1029D8001A4619464068FEF7AFBE00231A46194644
:1029E8004068FEF7A1BE002211464068FEF784BE8B
:1029F800002202214068FEF787BE00231A4640687D
:102A0800FEF772BE024B04225A60024A1A607047EF
:102A1800B009002000670A0808B5144B33B1FFF766
:102A280039FF03681B699847002816DC104B33B13F
:102A3800FFF79AFE03681B699847002810DC0D4BC6
:102A48000BB1AFF300800C4B7BB1FFF75FFF03685E
:102A58001B699847002806DC08BDAFF30080E5E74E
:102A6800AFF30080EBE7AFF3008008BD0000000083
:102A780000000000000000000000000008B5FFF79B
:102A8800CBFFFEF77BFC014B186008BDC009002096
:102A98000248034A0349121A02F08CBF0040024060
:102AA80004400240F0690A0807B5002300931A465B
:102AB8006FF07701FEF7CEFD03B05DF804FB000070
:102AC80007B543880A2B08D0502B09D1094B1B683E
:102AD8003BB103B05DF804EB1847FFF7E5FF06E0EC
:102AE800002300931A466FF07701FEF7B3FD03B099
:102AF8005DF804FBB809002038B5104C104D236868
:102B0800AB42104B0CBF012200221A7002D0FFF713
:102B1800BFFF2560FEF71AFC044602F05FFF0A4B70
:102B280013B12046AFF3008000210748FEF7D4FD1B
:102B3800BDE8384000210548FEF782BD004002404C
:102B48001E1C279ABC09002000000000C92A0A0898
:102B580010B504460F48FFF7A3FC28B1A4F10D03F4
:102B6800022B01D8002010BD00F056F8FFF78EF9AF
:102B780008B1012CF6D9FFF7F7FDFFF7F1FD18B101
:102B8800A4F11203012BEDD9172C8CBF00200120D2
:102B980010BD00BFF4090020172838B504460D46BB
:102BA8000AD8FF2908D0FFF7D3FF28B129462046C5
:102BB800BDE83840FEF702BC38BD38B504460D46BE
:102BC800FEF704FCFF2810D0062804D84D2323FA6A
:102BD80000F0C30709D42046FFF7BAFF28B12946F9
:102BE8002046BDE83840FEF7F9BB38BD10B50446AD
:102BF800FEF7ECFB0438C0B2012808D92046FFF7DD
:102C0800A7FF20B12046BDE81040FEF7EFBB00202B
:102C180010BDFEF703BC000038B50B4D296811F054
:102C280001040FD12846FDF738FA58B12146074864
:102C3800FFF71AF92846FDF735FA054A054903480A
:102C480000F044F8014838BDC4090020C809002034
:102C5800E0030020191E0A0813B5084C00231A4681
:102C6800194600932046FFF7E9F92046044A05492A
:102C780002B0BDE8104000F029B800BFDC09002010
:102C8800E0030020951F0A0870B50C4C0C4E0D4D42
:102C980000212046FFF7F0FB20460B4C3246294620
:102CA80000F014F801212046FFF7E6FB32462946DA
:102CB8002046BDE8704000F009B800BFF4090020C4
:102CC800E003002071240A08040A00200B4601468C
:102CD800184602F069BDFDF7DEB908B5FEF784FDB8
:102CE800244B1A68D0075CBF01221A60224B1A686D
:102CF800D1075CBF01221A60204B1A68D2075CBF5B
:102D080001221A601E4B1A68D0075CBF01221A60A4
:102D18001C4B1A68D1075CBF01221A601A4B1A684B
:102D2800D2075CBF01221A60184B1A68D0075CBF33
:102D380001221A60164B1A68D1075CBF01221A607B
:102D4800144B1A68D2075CBF01221A60124B1A682A
:102D5800D0075CBF01221A60104B1A68D1075CBF0C
:102D680001221A600E4B1A68D2075CBF01221A6052
:102D7800704700BF400A00203C0A0020380A0020A3
:102D8800340A0020300A00202C0A0020280A0020DB
:102D9800240A0020200A00201C0A0020180A00200B
:102DA800140A0020184B1A68D1075CBF01221A6068
:102DB800164B1A68D2075CBF01221A60144B1A68B6
:102DC800D0075CBF01221A60124B1A68D1075CBF9A
:102DD80001221A60104B1A68D2075CBF01221A60E0
:102DE8000E4B1A68D0075CBF01221A600C4B1A6898
:102DF800D1075CBF01221A600A4B1A68D2075CBF70
:102E080001221A60704700BF600A00205C0A002097
:102E1800580A0020540A0020500A00204C0A0020BA
:102E2800480A0020440A0020184B1A68D1075CBFE2
:102E380001221A60164B1A68D2075CBF01221A6079
:102E4800144B1A68D0075CBF01221A60124B1A682B
:102E5800D1075CBF01221A60104B1A68D2075CBF09
:102E680001221A600E4B1A68D0075CBF01221A6053
:102E78000C4B1A68D1075CBF01221A600A4B1A680A
:102E8800D2075CBF01221A60704700BF800A002089
:102E98007C0A0020780A0020740A0020700A0020AA
:102EA8006C0A0020680A0020640A0020244B1A6873
:102EB800D0075CBF01221A60224B1A68D1075CBF99
:102EC80001221A60204B1A68D2075CBF01221A60DF
:102ED8001E4B1A68D0075CBF01221A601C4B1A6887
:102EE800D1075CBF01221A601A4B1A68D2075CBF6F
:102EF80001221A60184B1A68D0075CBF01221A60B9
:102F0800164B1A68D1075CBF01221A60144B1A6865
:102F1800D2075CBF01221A60124B1A68D0075CBF47
:102F280001221A60104B1A68D1075CBF01221A608F
:102F38000E4B1A68D2075CBF01221A60704700BFA7
:102F4800B00A0020AC0A0020A80A0020A40A002029
:102F5800A00A00209C0A0020980A0020940A002059
:102F6800900A00208C0A0020880A0020840A002089
:102F780008B5C0F3C7537F3B162B01460EDC002B68
:102F8800024610DB0B481841014205D04FF480017E
:102F98001941114421EA0001084608BD802BFBD1E4
:102FA80002F06EF908BD013300F00041F4D141F0A0
:102FB8007E51F1E7FFFF7F002DE9F0418AB004461A
:102FC8000D4600F095FA374B064693F900800F46F8
:102FD800B8F1FF3F0DD022462B462046294602F085
:102FE8009BF830B9002200232046294602F08AF8CF
:102FF80020B1304639460AB0BDE8F0812A4B089026
:10300800CDE90245CDE904450193B8F1000F19D186
:10301800264F4FF060462046294600220023CDE97E
:10302800066702F047F8002834D002230093684668
:1030380001F00EFBA8B1089BC3B9DDE906010AB08F
:10304800BDE8F0811A4F00262046294600220023B9
:10305800CDE9066702F02EF868B10223984500937F
:10306800E5D1FEF7D1FB22230360E4E7FEF7CCFBB2
:10307800089B0360E1E70123B8F1020F00930BD12D
:10308800FEF7C2FB212303600A4801F0E3FACDE909
:103098000601D0E701230093684601F0D9FA002819
:1030A800F2D1EDE7280300202C670A08FFFFEFC7DD
:1030B8000000F0FF30670A082DE9F0438BB00446A2
:1030C8000D4600F009FC384B064693F900800F4680
:1030D800B8F1FF3F0ED022462B462046294602F083
:1030E8001BF8814630B9002200232046294601F00A
:1030F800F5FF20B9304639460BB0BDE8F0832B4BBD
:10310800CDF82090CDE90245CDE904450193B8F109
:10311800000F19D1264F4FF060462046294600225D
:103128000023CDE9066701F0C5FF002834D002234B
:103138000093684601F08CFAA8B1089BC3B9DDE991
:1031480006010BB0BDE8F0831A4F00262046294639
:1031580000220023CDE9066701F0ACFF68B1022325
:1031680098450093E5D1FEF74FFB22230360E4E77F
:10317800FEF74AFB089B0360E1E70123B8F1020F61
:1031880000930BD1FEF740FB212303600A4801F0AE
:1031980061FACDE90601D0E701230093684601F002
:1031A80057FA0028F2D1EDE72803002034670A080F
:1031B800FFFFEFC70000F0FF30670A082DE9F04F66
:1031C8008DB006460F4614461D4600F011FCDFF888
:1031D8001093CDE9000199F90080B8F1FF3F46D07E
:1031E80022462B462046294601F096FF83460028B2
:1031F8003DD132463B463046394601F08DFF824686
:10320800002874D1304639460022002301F052FFCD
:10321800002833D0002200232046294601F04AFF27
:103228008346B8B1A94A012300200021CDF828A07F
:10323800CDE90467CDE90645CDE90801039202937B
:10324800B8F1000F6CD0A24B0022104619460DB001
:10325800BDE8F08F2046294601F0F4F938B1002284
:1032680000232046294601F02FFF00286AD1DDE916
:103278000023104619460DB0BDE8F08FDDE90001C6
:1032880001F0E0F9804600287DD0DDE900014FF02B
:10329800000A4FF0000B52465B4601F00BFF002876
:1032A800E5D03046394601F0CDF90028DFD0204678
:1032B800294601F0C7F90028D9D099F90030834888
:1032C80004210022022BCDE90467CDE90645CDE9AA
:1032D80008AB039002910A9204D002A801F0B8F951
:1032E800002847D1FEF790FA2223036042E000222B
:1032F80000232046294601F0DDFE0028B7D0744B94
:10330800724800220121B8F1020FCDF828B0CDE9AA
:103318000467CDE90645CDE9082303900291A8D0BA
:1033280002A801F095F900287ED00A9B43B3FEF766
:103338006BFADDE908230A990160104619460DB0B9
:10334800BDE8F08F614999F900300122CDF828B025
:10335800CDE90467CDE9064503910292002B68D0B8
:103368005C490020022BCDE9080166D1FEF74CFA32
:10337800212303600A9B1BB1FEF746FA0A9B0360F0
:10338800DDE9082375E73046394601F05BF9002886
:103398003FF47BAF2046294601F054F900283FF45A
:1033A80074AFDDE900231046194601F0B5FE002888
:1033B8006FD1464B99F90080039303230A90CDE916
:1033C8000467CDE906450293B8F1000F3BD1DFF859
:1033D80014B14FF0604A0022002330463946CDE947
:1033E80008AB01F071FE00283FF477AF00223A4B9A
:1033F8002046294601F0F6FB04460D4601F030F957
:1034080002460B462046294601F054FE00283DD1CD
:10341800324B4FF06042CDE9082399F90080B8F1AA
:10342800020F7FF45AAF5DE7FEF7EEF92123036040
:103438007BE700230024CDE9083402A801F008F94D
:10344800002897D192E7DFF8A0B04FF0000A0022D9
:10345800002330463946CDE908AB01F035FE002897
:10346800DDD000221C4B2046294601F0BBFB044658
:103478000D4601F0F5F802460B462046294601F0B4
:1034880019FE18B9134B0022CDE9082399F90080D9
:10349800C5E70E4A99F900900123CDF82880CDE9B7
:1034A8000467CDE9064503920293B9F1000FC0D035
:1034B800002200231046194601F0BEFCB9F1020FA4
:1034C800CDE908013FF452AFB7E700BF3C670A08EF
:1034D8000000F03F0000F0FF0000E03FFFFFEFC7F3
:1034E80028030020FFFFEF470000F07F00000000E6
:1034F8002DE9F04FB1F5801F85B006460F460B4603
:103508005ADA024621F00044224300F0F7800029ED
:10351800C0F279810022D64B01F064FB0B460F46BE
:10352800D44906468B426FF0350249DCC3F31305D4
:1035380005F5152404F6647404F4801E8EF07F519A
:1035480081F440111B15A3F2FF3341EA05079C18CB
:1035580030460022C84B394604EB1E5401F08EF960
:10356800AB1CC3F31303022B82468B464FF00002B9
:103578002FDC002301F09EFD002800F0C880002CFD
:1035880000F04A81204601F0C7FAA5A3D3E9002339
:1035980006460F4601F026FBA3A3D3E90023044601
:1035A8000D463046394601F01DFB02460B462046C3
:1035B800294601F065F909E0AE4900228B42B5DDE4
:1035C80032463B463046394601F05AF905B0BDE867
:1035D800F08F4FF0804301F053F902460B465046F6
:1035E800594601F029FC064620460F4601F094FA98
:1035F8003246CDE900013B4630463946CDE90267FF
:1036080001F0F0FA02460B468046894601F0EAFAD4
:1036180087A3D3E9002306460F4601F0E3FA86A301
:10362800D3E9002301F02CF932463B4601F0DAFADF
:1036380083A3D3E9002301F023F932463B4601F086
:10364800D1FA81A3D3E9002301F01AF942464B4687
:1036580001F0C8FA7EA3D3E90023804689463046A4
:10366800394601F0BFFA7CA3D3E9002301F008F939
:1036780032463B4601F0B6FA79A3D3E9002301F0BC
:10368800FFF832463B4601F0ADFA0B460246494682
:10369800404601F0F5F8A5F5C223C5F5D725A3F2F4
:1036A8007A4351351D43002D8046894656DD002258
:1036B800724B5046594601F095FA52465B4601F066
:1036C80091FA06460F46002C68D132463B464046E2
:1036D800494601F0D5F8DDE9022301F083FA0246F4
:1036E8000B463046394601F0C9F802460B465046AB
:1036F800594601F0C3F805B0BDE8F08F0022002359
:1037080000205F4901F098FB05B0BDE8F08F56A393
:10371800D3E900235046594601F064FA02460B46A5
:103728000020564901F0AAF8524606460F465B4665
:103738005046594601F056FA02460B46304639467D
:1037480001F050FA06460F46002C40F09B800246D6
:103758000B465046594601F091F837E7002C00F027
:10376800A5802FA3D3E90023DDE9000101F03AFA8F
:1037780042464B4604460D465046594601F07EF8EF
:10378800DDE9022301F02EFA27A3D3E90023064638
:103798000F46DDE9000101F025FA21E020A3D3E975
:1037A8000023DDE9000101F01DFA32463B460446DC
:1037B8000D464046494601F063F8DDE9022301F071
:1037C80011FA19A3D3E9002380468946DDE90001EF
:1037D80001F008FA02460B464046494601F050F807
:1037E80002460B463046394601F048F852465B46D9
:1037F80001F044F802460B462046294601F03EF8FF
:1038080005B0BDE8F08F02460B4601F037F80022FC
:10381800002301F011FBD9E600200021D6E600BF05
:103828000000E0FE422EE63F763C7935EF39EA3D6E
:1038380044523EDF12F1C23FDE03CB966446C73FD7
:10384800599322942449D23F935555555555E53FF0
:103858009FC678D0099AC33FAF788E1DC571CC3FFB
:1038680004FA97999999D93F555555555555D53FC6
:1038780000005043FFFFEF7F0000F03F0000E03FF3
:10388800000050C3204601F047F90FA3D3E90023F5
:103898008046894601F0A6F90DA3D3E90023044622
:1038A8000D464046494601F09DF999E702460B4608
:1038B8005046594600F0E2FFDDE9022301F092F993
:1038C80013E700BFAFF300800000E0FE422EE63FA2
:1038D800763C7935EF39EA3DB1F5801F2DE9F8439B
:1038E80004460D460B461ADA024621F000463243DA
:1038F80058D000295EDB0022394B01F073F90B46E2
:103908000D46384904468B426FF035020BDD2246DE
:103918002B462046294600F0B3FFBDE8F88331491D
:1039280000228B42F3DC1815A0F2FF3010444FEA56
:10393800D0794844C3F3130801F0EEF8C9F57F7352
:10394800033348EA035506460F4620462946FFF743
:10395800CFFD1DA3D3E9002380468946304639466A
:1039680001F040F91AA3D3E9002304460D46404666
:10397800494601F037F902460B462046294600F031
:103988007FFF15A3D3E9002304460D463046394688
:1039980001F028F902460B462046294600F070FF40
:1039A800BDE8F8830022002300200F4901F044FA03
:1039B800BDE8F88302460B4600F060FF00220023B2
:1039C80001F03AFABDE8F883362BF111F3FE593DC0
:1039D8000EE526157BCBDB3F00609F501344D33F99
:1039E80000005043FFFFEF7F000050C300000000BD
:1039F8002DE9F04F23F0004858EA020993B03CD073
:103A0800714C21F00046A64283460D460CDD06F1B6
:103A1800404606F5801656EA0B0038D183466B49B6
:103A2800584613B0BDE8F08F9A4696462BD0A0456D
:103A3800EDDC654CA04578D0002D0F468146CDE9D8
:103A4800002376DB0024BEF1000F27D15E4B98459A
:103A580000F08B805D4B984552D0BAF1804F00F052
:103A6800C9835B4B9A4519D1002D17DB4846394667
:103A780013B0BDE8F04F00F01DBDCB465846534982
:103A880013B0BDE8F08F0028C1D1B045D1DD514851
:103A980013B0BDE8F04F00F0DDBD002448463946BC
:103AA80000F0CCFDBBF1000F1CD0ED0F013D54EA36
:103AB800050370D0484B984540F3948003F1047394
:103AC800984540F30D84454B9E4270DDBAF1000FD6
:103AD80070DD3BA3D3E900231046194601F082F8B4
:103AE80083469DE726B1394B25F040429A42DCD106
:103AF800BAF1000FC0F2B783002D08DB83468FE7C9
:103B0800BAF1000FC0F25E84CB46394688E706F169
:103B1800404606F5801656EA040300F08384012C1B
:103B2800ECD101F1004183467AE7BEF1000F83D062
:103B38006DE72B4B98452CDCA3F15473984581DD38
:103B48004FEA2853A3F2FF33142B40F35384C3F1F5
:103B580034032EFA03F202FA03F39E457FF472AFA0
:103B680002F00102C2F102046DE706F1404303F5D9
:103B7800801353EA0B0300F03A83184B9E4240F33C
:103B88006783BAF1000F15DBDDE900349B46214657
:103B980046E7022457E74A4648463B46394600F07E
:103BA8006DFE02460B4601F047F9834638E7BAF145
:103BB800000F8EDB4FF0000B594631E7AFF3008062
:103BC8009C7500883CE4377E0000F07F0000F03FE1
:103BD8000000E03F30670A080000E041FFFFEF3FC8
:103BE800FFFF3F43B6F5801F4FF0000205DAD04BC8
:103BF80000F0F8FF0E466FF03402DFF844E33315A7
:103C0800C6F31306A3F2FF3346F07F57764503EB5E
:103C1800020A47F4401740F3C983C64B00229E426C
:103C280040F304840023CDE90823CDE90C23C24BDB
:103C38000022CDE906230AF1010AA7F5801700261C
:103C48003946DDE90623CDE90A0100F017FEDDE972
:103C5800062380468946DDE90A0100F011FE024686
:103C68000B460020B44901F0E7F80A46014613461E
:103C7800CDE90E1202464946404600F0B3FF8C4695
:103C880083467B1043F0005303F500239919002065
:103C9800CDE904BC06460F464FF0000B6146584676
:103CA80032463B46CDE910BCCDE9020100F09AFF4F
:103CB80002460B464046494600F0E0FDDDE9062392
:103CC800804689463046394600F0D8FD02460B4604
:103CD800DDE90A0100F0D2FDDDE9022300F082FFF0
:103CE80002460B464046494600F0C8FDDDE90E2372
:103CF80000F078FFDDE90478CDE906013A4643464D
:103D08003846414600F06EFF77A3D3E90023064604
:103D18000F4600F067FF76A3D3E9002300F0B0FD5B
:103D280032463B4600F05EFF73A3D3E9002300F060
:103D3800A7FD32463B4600F055FF71A3D3E90023A7
:103D480000F09EFD32463B4600F04CFF6EA3D3E9DF
:103D5800002300F095FD32463B4600F043FF6CA37C
:103D6800D3E9002300F08CFD3246804689463B4665
:103D78003046394600F036FF02460B464046494673
:103D880000F030FFDDE9022306460F46DDE90401B5
:103D980000F076FDDDE9062300F024FF32463B46BD
:103DA80000F06EFDDDE902678046894632463B46F3
:103DB8003046394600F016FF0022604BCDE90A0173
:103DC80000F05EFD42464B4600F05AFDDDE910BCAE
:103DD8000F46DDE902015A463B46CDE90EBC5E4678
:103DE80000F000FF0022CDE90201544B304639466D
:103DF80000F044FDDDE90A2300F040FD02460B46D1
:103E08004046494600F03AFDDDE9042300F0EAFEA9
:103E1800324680468946DDE906013B4600F0E2FE6F
:103E280002460B464046494600F02AFD8046894630
:103E380002460B46DDE9020100F022FDDDE90EBC79
:103E480035A3D3E900235846CDE906BC5E460F46A4
:103E580000F0C8FEDDE90223CDE904013046394609
:103E680000F00CFD02460B464046494600F006FDB0
:103E78002BA3D3E9002300F0B5FE2BA3D3E900233D
:103E8800804689463046394600F0ACFE02460B466D
:103E98004046494600F0F4FCDDE90C2300F0F0FC54
:103EA80080465046894600F037FE06460F46DDE953
:103EB800040142464B4600F0E3FCDDE9082300F02C
:103EC800DFFC32463B4600F0DBFCDDE906BC32464F
:103ED80058463B46DA468B4600F0D0FCDDE908231D
:103EE80030E000BFAFF30080EF4E454A287ECA3F5E
:103EF80065DBC9934A86CD3F01411DA96074D13F56
:103F08004D268F515555D53FFFAB6FDBB66DDB3F67
:103F1800033333333333E33F000000E009C7EE3F98
:103F2800FD033ADC09C7EE3FF5015B14E02F3EBE06
:103F38000000404379B60B000000F03F0000084045
:103F48008E98030000F09AFCDDE9042300F096FC4B
:103F580002460B464046494600F090FC804689469A
:103F6800DDE90012013C54EA050314BFD64CD74CD6
:103F78000023CDE904340B461446CDE9023400236E
:103F88000293DDE9024508462B461146224600F019
:103F980075FC52465B4600F025FEDDE90023064627
:103FA8000F464046494600F01DFE02460B46304685
:103FB800394600F065FC06460F4622462B46504619
:103FC8005946CDE9006700F00DFE0B4602468046D3
:103FD80089463046394600F053FCBD4B06469942A7
:103FE8000D460C4640F30E8101F13F4303F5E00313
:103FF800034340F0F081A0A3D3E90023DDE90001E9
:1040080000F03EFC424682468B464B4630462946E7
:1040180000F034FC02460B465046594601F072F84F
:10402800002840F0D8812F463B154FF48012A3F2A8
:10403800FE3342FA03F32344C3F30A52A54EA2F215
:10404800FF321641C3F3130B0020C2F1140523EA13
:1040580006014BF4801B02460B46002C4BFA05FB6D
:1040680040464946B8BFCBF1000B00F007FC0246BA
:104078000B4680468946DDE9000100F001FC4FEA65
:104088000B5A00247EA3D3E9002320460D4600F0F6
:10409800A9FD424606460F464B462046294600F0F3
:1040A800EDFB02460B46DDE9000100F0E7FB76A3D5
:1040B800D3E9002300F096FD75A3D3E900238046D9
:1040C80089462046294600F08DFD02460B464046AB
:1040D800494600F0D5FB8046894602460B463046E5
:1040E800394600F0CDFB32463B4604460D4600F00B
:1040F800C5FB02460B464046494600F0BFFB224638
:10410800804689462B462046294600F06BFD62A36F
:10411800D3E9002306460F4600F064FD60A3D3E907
:10412800002300F0ABFB32463B4600F05BFD5EA38C
:10413800D3E9002300F0A4FB32463B4600F052FDD1
:104148005BA3D3E9002300F099FB32463B4600F01D
:1041580049FD59A3D3E9002300F092FB32463B46C0
:1041680000F040FD02460B462046294600F086FB3B
:1041780006460F4602460B462046294600F032FD09
:104188000022CDE900014FF080433046394600F067
:1041980075FB02460B46DDE9000100F04DFE424684
:1041A80006460F464B462046294600F01BFD424670
:1041B8004B4600F065FB02460B463046394600F098
:1041C8005DFB22462B4600F059FB02460B460020B9
:1041D8003D4900F053FB8A44BAF5801FC0F237818D
:1041E8005146DDE9042300F0FDFC834618E4F3465C
:1041F800354915E44A4648463B46394600F0F2FC44
:1042080083460DE4344B21F000479F4240F301817F
:10421800324B0B4403430CD142464B4600F02EFB75
:1042280002460B46DDE9000100F058FF00283FF484
:10423800FBAE23A3D3E90023DDE9040100F0D2FC9F
:104248001FA3D3E9002300F0CDFC8346FFF7E8BBAA
:10425800BAF1000FBFF6AEACDDE900349B4604F1BD
:104268000041FFF7DDBB02460B460020164900F06F
:10427800E3FD41E4AFF30080FE822B654715973CD0
:1042880000000000432EE63FEF39FAFE422EE63FDB
:10429800396CA80C615C20BED0A4BE726937663E3A
:1042A800F16BD2C541BDBB3E2CDE25AF6A56113F2E
:1042B80093BDBE166CC1663F3E5555555555C53F15
:1042C80059F3F8C21F6EA5010000F03F0000F0BFCF
:1042D800FFFF8F40FFFF0F00FFCB904000346F3F80
:1042E8006F4B9E427FF763AC6E4B9E423FF7EEAB3F
:1042F80000226C4B00F0C2FA5BA3D3E90023064608
:104308000F4600F06FFC5AA3D3E900238046894684
:104318003046394600F066FC002282468B46624BE6
:104328003046394600F05EFC02460B4652A1D1E900
:10433800000100F0A3FA32463B4600F053FC024667
:104348000B460020594900F099FA3246CDE902019E
:104358003B463046394600F045FC02460B46DDE94F
:10436800020100F03FFC46A3D3E9002300F03AFC29
:1043780002460B465046594600F080FA02460B4664
:1043880006460F464046494600F07AFA42464B46F2
:10439800002082468B4600F071FA02460B463046F2
:1043A800394600F06BFA80468946D9E50022002399
:1043B800CDE90823CDE90C233A4B00220026CDE9AC
:1043C80006233DE44A463B460020364900F034FDCA
:1043D8008346FFF725BB2CA3D3E90023DDE90401BD
:1043E80000F000FC28A3D3E9002300F0FBFB834680
:1043F800FFF716BBBEF1000F7FF44FABC3F11403F8
:1044080048FA03F202FA03F3984524D07446FFF7FA
:1044180021BB264B9F423FF707AEDDE902349A469F
:104428009B462EE602460B46FFF7B9BB204B4FF4DE
:104438008026CDE9062316A3D3E90023CDE9082376
:1044480015A3D3E90023CDE90C23FFF7F9BB5A469E
:1044580000F096F9C5E602F00102C2F10204FFF786
:10446800F9BA00BFAFF30080000000604715F73FBE
:1044780044DF5DF80BAE543E555555555555D53F5F
:10448800FE822B654715F73F9C7500883CE4377E14
:104498000000004003B8E23F06D0CF43EBFD4C3E9E
:1044A800FEFFEF3F0000F03F0000D03F0000E03F7C
:1044B8000000F83F2DE9F0415F4E0C46B6460E402D
:1044C8007645054600F0988000290B46024674DDC3
:1044D8005FEA215E7FD0AEF2FF3EC3F313031EF006
:1044E800010F43F4801363D100273E4603EBD271DA
:1044F8000B444FEA6E0E520016204FF40011741848
:104508009C424FEAD2754FEA420202DC1B1B661836
:104518000F44013805EB43034FEA5101EFD18446BC
:1045280020244FF0004109E020D003EBD275013C74
:104538004FEA51012B444FEA420220D09E4201EB40
:104548000C05F1DA002D05EB010C09DBB0469542AC
:10455800A3EB060300D9013B4646521B0844E4E797
:10456800BCF1000FF2DB06F10108F0E7954217D81D
:10457800002D05EB010C49DB98460023ECE71343BB
:1045880010D140087B1003F17F5303F50013FA079D
:1045980003EB0E57394648BF40F00040BDE8F081B4
:1045A8003346C2E7411C35D000F001031844E8E760
:1045B8005B0003EBD273520096E721F000460643F6
:1045C800ECD079BB8E46D30AAEF1150E5205002BFE
:1045D800F9D0DD0221D4002100E001465B00DC02B5
:1045E80001F10100F9D5C0F1200422FA04F42343B3
:1045F800C1EB0E0E82406EE702460B4600F0F2FA5F
:104608002A46234600F03CF9BDE8F081BCF1000FD2
:10461800A9DAB1E701372046B4E720244FF0FF318B
:104628000020E2E702460B4600F028F902460B4656
:1046380000F002FCB2E700BF0000F07F21F000416B
:10464800704700BF41F0004101F58010C00F70476E
:104658000020704700200149704700BF0000F87F24
:10466800F0B5C1F30A5EAEF2FF36132E83B00246F0
:104678000B460C464FEAD17507462EDC002E49DB67
:104688003D49314103EA010010432BD049080B4052
:1046980053EA02070CD04FF48023132E24EA0101B9
:1046A80043FA06F444EA01040CBF4FF00047002720
:1046B800324B214603EBC505D5E90045384622466D
:1046C8002B4600F0DDF8CDE90001DDE900012246C6
:1046D8002B4600F0D3F803B0F0BD332E06DDB6F557
:1046E800806F45D01046194603B0F0BDAEF2134EA8
:1046F8004FF0FF3121FA0EF10842F3D04908084281
:10470800D6D04FF0804320EA010143FA0EFE4EEA6C
:104718000107CDE721F0004101431946E4D0C3F376
:10472800130343EA000CCCF1000343EA0C0C134BCF
:10473800640C4FEA1C3C0CF4002C03EBC503640426
:10474800D3E900674CEA040132463B4600F098F88A
:10475800CDE90001DDE9000132463B4600F08EF864
:10476800024621F0004141EAC57310461946BBE7ED
:1047780000F086F8B8E700BFFFFF0F0040670A089F
:10478800F8B5C1F30A5604460D460B46174606BB54
:1047980021F00043034325D000222F4B00F022FADA
:1047A8002E4A044697420D460B462ADBC1F30A56A9
:1047B800363E40F2FE723E44964228DC002E12DD60
:1047C80023F0FF4323F4E00343EA06552046294635
:1047D800F8BD40F2FF729642EBD102460B4600F05C
:1047E8004FF8F8BDF8BD16F1350F1DDA4CF250330D
:1047F8009F420CDC14A1D1E9000122462B4600F0AF
:1048080031F811A3D3E9002300F0ECF9F8BD2246F2
:104818000FA1D1E900012B4600F024F80CA3D3E93D
:10482800002300F0DFF9F8BD23F0FF4323F4E00391
:10483800363643EA0655204629460022084B00F042
:10484800D1F9F8BDAFF3008059F3F8C21F6EA50186
:104858009C7500883CE4377E00005043B03CFFFF65
:104868000000903C03F0004321F0004242EA0301BB
:10487800704700BF81F0004102E000BF83F00043B1
:1048880030B54FEA41044FEA430594EA050F08BFE3
:1048980090EA020F1FBF54EA000C55EA020C7FEAA7
:1048A800645C7FEA655C00F0E2804FEA5454D4EB24
:1048B8005555B8BF6D420CDD2C4480EA020281EAEE
:1048C800030382EA000083EA010180EA020281EA26
:1048D8000303362D88BF30BD11F0004F4FEA013178
:1048E8004FF4801C4CEA113102D0404261EB410187
:1048F80013F0004F4FEA03334CEA133302D052420D
:1049080063EB430394EA050F00F0A780A4F10104C8
:10491800D5F1200E0DDB02FA0EFC22FA05F2801802
:1049280041F1000103FA0EF2801843FA05F35941E8
:104938000EE0A5F120050EF1200E012A03FA0EFC67
:1049480028BF4CF0020C43FA05F3C01851EBE37191
:1049580001F0004507D54FF0000EDCF1000C7EEBAE
:1049680000006EEB0101B1F5801F1BD3B1F5001FEC
:104978000CD349085FEA30004FEA3C0C04F101040B
:104988004FEA445212F5800F80F09A80BCF1004F34
:1049980008BF5FEA500C50F1000041EB045141EAB6
:1049A800050130BD5FEA4C0C404141EB010111F4B7
:1049B800801FA4F10104E9D191F0000F04BF014662
:1049C8000020B1FA81F308BF2033A3F10B03B3F140
:1049D80020020CDA0C3208DD02F1140CC2F10C02D0
:1049E80001FA0CF021FA02F10CE002F11402D8BF2E
:1049F800C2F1200C01FA02F120FA0CFCDCBF41EAFA
:104A08000C019040E41AA2BF01EB0451294330BDC8
:104A18006FEA04041F3C1CDA0C340EDC04F11404A5
:104A2800C4F1200220FA04F001FA02F340EA03007C
:104A380021FA04F345EA030130BDC4F10C04C4F1C2
:104A4800200220FA02F001FA04F340EA03002946A2
:104A580030BD21FA04F0294630BD94F0000F83F4EC
:104A6800801306BF81F480110134013D4EE77FEACF
:104A7800645C18BF7FEA655C29D094EA050F08BF1B
:104A880090EA020F05D054EA000C04BF19461046FC
:104A980030BD91EA030F1EBF0021002030BD5FEA40
:104AA800545C05D14000494128BF41F0004130BD68
:104AB80014F580043CBF01F5801130BD01F00045BC
:104AC80045F0FE4141F470014FF0000030BD7FEA2F
:104AD800645C1ABF194610467FEA655C1CBF0B462A
:104AE800024650EA013406BF52EA033591EA030F41
:104AF80041F4002130BD00BF90F0000F04BF002139
:104B0800704730B54FF4806404F132044FF000056B
:104B18004FF0000150E700BF90F0000F04BF0021E4
:104B2800704730B54FF4806404F1320410F000454A
:104B380048BF40424FF000013EE700BF42004FEA45
:104B4800E2014FEA31014FEA02701FBF12F07F43C2
:104B580093F07F4F81F06051704792F0000F14BFBF
:104B680093F07F4F704730B54FF4607401F0004503
:104B780021F0004120E700BF50EA010208BF70475A
:104B880030B54FF000050AE050EA010208BF70474F
:104B980030B511F0004502D5404261EB41014FF4B8
:104BA800806404F132045FEA915C3FF4DCAE4FF0BC
:104BB80003025FEADC0C18BF03325FEADC0C18BFA3
:104BC800033202EBDC02C2F1200300FA03FC20FAF4
:104BD80002F001FA03FE40EA0E0021FA02F1144441
:104BE800C1E600BF70B54FF0FF0C4CF4E06C1CEA56
:104BF80011541DBF1CEA135594EA0C0F95EA0C0FCB
:104C080000F0DEF82C4481EA030621EA4C5123EA3D
:104C18004C5350EA013518BF52EA033541F480116C
:104C280043F4801338D0A0FB02CE4FF00005E1FB1F
:104C380002E506F00042E0FB03E54FF00006E1FB69
:104C480003569CF0000F18BF4EF0010EA4F1FF04AC
:104C5800B6F5007F64F5407404D25FEA4E0E6D41EC
:104C680046EB060642EAC62141EA55514FEAC520FD
:104C780040EA5E504FEACE2EB4F1FD0C88BFBCF579
:104C8800E06F1ED8BEF1004F08BF5FEA500E50F12A
:104C9800000041EB045170BD06F0004646EA0101F0
:104CA80040EA020081EA0301B4EB5C04C2BFD4EB22
:104CB8000C0541EA045170BD41F480114FF0000E1B
:104CC800013C00F3AB8014F1360FDEBF002001F089
:104CD800004170BDC4F10004203C35DA0C341BDC03
:104CE80004F11404C4F1200500FA05F320FA04F0D5
:104CF80001FA05F240EA020001F0004221F0004109
:104D080010EBD37021FA04F642EB06015EEA430E7B
:104D180008BF20EAD37070BDC4F10C04C4F12005AB
:104D280000FA04F320FA05F001FA04F240EA02005E
:104D380001F0004110EBD37041F100015EEA430E2F
:104D480008BF20EAD37070BDC4F1200500FA05F24F
:104D58004EEA020E20FA04F301FA05F243EA0203CE
:104D680021FA04F001F0004121FA04F220EA0200DD
:104D780000EBD3705EEA430E08BF20EAD37070BD23
:104D880094F0000F0FD101F00046400041EB010103
:104D980011F4801F08BF013CF7D041EA060195F0E5
:104DA800000F18BF704703F00046520043EB03039F
:104DB80013F4801F08BF013DF7D043EA060370478C
:104DC80094EA0C0F0CEA135518BF95EA0C0F0CD097
:104DD80050EA410618BF52EA4306D1D181EA0301DD
:104DE80001F000414FF0000070BD50EA410606BFD7
:104DF8001046194652EA430619D094EA0C0F02D11C
:104E080050EA013613D195EA0C0F05D152EA033660
:104E18001CBF104619460AD181EA030101F000417E
:104E280041F0FE4141F470014FF0000070BD41F0C7
:104E3800FE4141F4780170BD70B54FF0FF0C4CF4A1
:104E4800E06C1CEA11541DBF1CEA135594EA0C0FC0
:104E580095EA0C0F00F0A7F8A4EB050481EA030E0D
:104E680052EA03354FEA013100F088804FEA0333F4
:104E78004FF0805545EA131343EA12634FEA0222C2
:104E880045EA111545EA10654FEA00260EF0004183
:104E98009D4208BF964244F1FD0404F5407402D2D5
:104EA8005B084FEA3202B61A65EB03055B084FEA66
:104EB80032024FF480104FF4002CB6EB020E75EB63
:104EC800030E22BFB61A754640EA0C005B084FEA8B
:104ED8003202B6EB020E75EB030E22BFB61A754608
:104EE80040EA5C005B084FEA3202B6EB020E75EB53
:104EF800030E22BFB61A754640EA9C005B084FEACB
:104F08003202B6EB020E75EB030E22BFB61A7546D7
:104F180040EADC0055EA060E18D04FEA051545EAC6
:104F280016754FEA06164FEAC30343EA52734FEA6F
:104F3800C2025FEA1C1CC0D111F4801F0BD141EAE8
:104F480000014FF000004FF0004CB6E711F4801F4D
:104F580004BF01430020B4F1FD0C88BFBCF5E06F2D
:104F68003FF6AFAEB5EB030C04BFB6EB020C5FEA3D
:104F7800500C50F1000041EB045170BD0EF0004E92
:104F88004EEA113114EB5C04C2BFD4EB0C0541EAC4
:104F9800045170BD41F480114FF0000E013C90E6C1
:104FA80045EA060E8DE60CEA135594EA0C0F08BF85
:104FB80095EA0C0F3FF43BAF94EA0C0F0AD150EA84
:104FC80001347FF434AF95EA0C0F7FF425AF104617
:104FD80019462CE795EA0C0F06D152EA03353FF43F
:104FE800FDAE1046194622E750EA410618BF52EABC
:104FF80043067FF4C5AE50EA41047FF40DAF52EA90
:1050080043057FF4EBAE12E74FF0FF3C06E000BF2C
:105018004FF0010C02E000BF4FF0010C4DF804CD39
:105028004FEA410C7FEA6C5C4FEA430C18BF7FEAF9
:105038006C5C1BD001B050EA410C0CBF52EA430C27
:1050480091EA030F02BF90EA020F0020704710F1A7
:10505800000F91EA030F58BF994208BF90422CBF36
:10506800D8176FEAE37040F0010070474FEA410C2F
:105078007FEA6C5C02D150EA013C07D14FEA430C4D
:105088007FEA6C5CD6D152EA033CD3D05DF8040BBE
:10509800704700BF8446104662468C4619466346F0
:1050A80000E000BF01B5FFF7B7FF002848BF10F1C7
:1050B800000F01BD4DF808EDFFF7F4FF0CBF01200C
:1050C80000205DF808FB00BF4DF808EDFFF7EAFF88
:1050D80034BF012000205DF808FB00BF4DF808ED43
:1050E800FFF7E0FF94BF012000205DF808FB00BF38
:1050F8004DF808EDFFF7CEFF94BF012000205DF8C2
:1051080008FB00BF4DF808EDFFF7C4FF34BF0120CE
:1051180000205DF808FB00BF4FEA410C7FEA6C5C99
:1051280002D150EA013C0AD14FEA430C7FEA6C5C99
:1051380002D152EA033C02D14FF0000070474FF011
:10514800010070474FEA410212F5001215D211D53D
:105158006FF47873B3EB625212D94FEAC12343F06C
:10516800004343EA505311F0004F23FA02F018BFEE
:10517800404270474FF00000704750EA013005D1B7
:1051880011F0004008BF6FF0004070474FF000007A
:10519800704700BF4A0011D212F5001211D20DD586
:1051A8006FF47873B3EB62520ED44FEAC12343F025
:1051B800004343EA505323FA02F070474FF00000CF
:1051C800704750EA013002D14FF0FF3070474FF07E
:1051D800000070474FEA4102B2F1E04324BFB3F543
:1051E800001CDCF1FE5C0DD901F0004C4FEAC00256
:1051F8004CEA5070B2F1004F40EB830008BF20F03A
:105208000100704711F0804F21D113F13872BCBFF3
:1052180001F00040704741F480114FEA5252C2F148
:105228001802C2F1200C10FA0CF320FA02F018BF91
:1052380040F001004FEAC1234FEAD32303FA0CFCE4
:1052480040EA0C0023FA02F34FEA4303CCE77FEA73
:10525800625307D150EA01331EBF4FF0FE4040F4BD
:105268004000704701F0004040F0FE4040F400006C
:10527800704700BF80F0004002E000BF81F00041AD
:1052880042001FBF5FEA410392EA030F7FEA226CE4
:105298007FEA236C6AD04FEA1262D2EB1363C1BF74
:1052A800D218414048404140B8BF5B42192B88BFE3
:1052B800704710F0004F40F4000020F07F4018BF06
:1052C800404211F0004F41F4000121F07F4118BF26
:1052D800494292EA030F3FD0A2F1010241FA03FCCE
:1052E80010EB0C00C3F1200301FA03F100F00043B6
:1052F80002D5494260EB4000B0F5000F13D3B0F17E
:10530800807F06D340084FEA310102F10102FE2AEC
:1053180051D2B1F1004F40EBC25008BF20F001005C
:1053280040EA03007047490040EB000010F4000F0A
:10533800A2F10102EDD1B0FA80FCACF1080CB2EB9D
:105348000C0200FA0CF0AABF00EBC25052421843FC
:10535800BCBFD0401843704792F0000F81F40001A1
:1053680006BF80F400000132013BB5E74FEA410374
:105378007FEA226C18BF7FEA236C21D092EA030FE0
:1053880004D092F0000F08BF0846704790EA010F5A
:105398001CBF0020704712F07F4F04D1400028BF87
:1053A80040F00040704712F100723CBF00F5000069
:1053B800704700F0004343F0FE4040F4000070479F
:1053C8007FEA226216BF08467FEA2363014642024B
:1053D80006BF5FEA412390EA010F40F4800070475E
:1053E8004FF0000304E000BF10F0004348BF404204
:1053F8005FEA000C08BF704743F0964301464FF040
:1054080000001CE050EA010208BF70474FF000039B
:105418000AE000BF50EA010208BF704711F00043DC
:1054280002D5404261EB41015FEA010C02BF8446AC
:105438000146002043F0B64308BFA3F18053A3F50B
:105448000003BCFA8CF2083AA3EBC25310DB01FA52
:1054580002FC634400FA02FCC2F12002BCF1004FD6
:1054680020FA02F243EB020008BF20F00100704767
:1054780002F1200201FA02FCC2F1200250EA4C00BB
:1054880021FA02F243EB020008BF20EADC70704701
:105498004FF0FF0C1CEAD0521EBF1CEAD15392EA0F
:1054A8000C0F93EA0C0F6FD01A4480EA010C4002EB
:1054B80018BF5FEA41211ED04FF0006343EA501045
:1054C80043EA5111A0FB01310CF00040B1F5000F87
:1054D8003EBF490041EAD3715B0040EA010062F136
:1054E8007F02FD2A1DD8B3F1004F40EBC25008BF20
:1054F80020F00100704790F0000F0CF0004C08BF3E
:1055080049024CEA502040EA51207F3AC2BFD2F10A
:10551800FF0340EAC250704740F400004FF0000318
:10552800013A5DDC12F1190FDCBF00F00040704752
:10553800C2F10002410021FA02F1C2F1200200FA90
:1055480002FC5FEA310040F1000053EA4C0308BF57
:1055580020EADC70704792F0000F00F0004C02BFA8
:10556800400010F4000F013AF9D040EA0C0093F023
:10557800000F01F0004C02BF490011F4000F013B7D
:10558800F9D041EA0C018FE70CEAD15392EA0C0FEB
:1055980018BF93EA0C0F0AD030F0004C18BF31F056
:1055A800004CD8D180EA010000F00040704790F02C
:1055B800000F17BF90F0004F084691F0000F91F0D0
:1055C800004F14D092EA0C0F01D142020FD193EA96
:1055D8000C0F03D14B0218BF084608D180EA01001E
:1055E80000F0004040F0FE4040F40000704740F0FA
:1055F800FE4040F4400070474FF0FF0C1CEAD052C8
:105608001EBF1CEAD15392EA0C0F93EA0C0F69D023
:10561800A2EB030280EA010C49024FEA402037D08E
:105628004FF0805343EA111143EA10130CF0004085
:105638008B4238BF5B0042F17D024FF4000C8B4275
:1056480024BF5B1A40EA0C00B3EB510F24BFA3EB55
:10565800510340EA5C00B3EB910F24BFA3EB910325
:1056680040EA9C00B3EBD10F24BFA3EBD10340EA7F
:10567800DC001B0118BF5FEA1C1CE0D1FD2A3FF6C5
:1056880050AF8B4240EBC25008BF20F0010070477A
:105698000CF0004C4CEA50207F32C2BFD2F1FF031D
:1056A80040EAC250704740F400004FF00003013A4E
:1056B80037E792F0000F00F0004C02BF400010F4F2
:1056C800000F013AF9D040EA0C0093F0000F01F006
:1056D800004C02BF490011F4000F013BF9D041EA28
:1056E8000C0195E70CEAD15392EA0C0F08D142025B
:1056F8007FF47DAF93EA0C0F7FF470AF084676E72E
:1057080093EA0C0F04D14B023FF44CAF08466EE706
:1057180030F0004C18BF31F0004CCAD130F00042D4
:105728007FF45CAF31F000437FF43CAF5FE700BF2C
:10573800094B70B51C680646256C3DB91A20FCF764
:1057480023F81A222064294600F03FF9216C3046DC
:10575800BDE8704000F002B89003002010B50C4678
:10576800416986B001F26C7103698269049101682C
:1057780003EB43030391416802EB42020291816803
:105788000191C1682046009104490B4404490A4428
:105798000449FCF711F8204606B010BD65670A08F1
:1057A80050670A0889670A0810B5054C13462CB1DA
:1057B8000A4601460220AFF3008010BD204610BD06
:1057C8000000000038B5074B05461C68E36B1BB9A1
:1057D8002420FBF7D9FFE063E16B2846BDE8384099
:1057E80000F002B8900300202DE9F0410C468046F5
:1057F80000F062FC21460746404600F061FC46691D
:10580800044606F26C76B30705D1642296FBF2F3E0
:1058180002FB13634BB94FF4C87596FBF5F305FB10
:105828001365B5FA85F35B0900E001235F4A30256B
:1058380005FB032500F074FA00F074FA5C4B1B6852
:10584800F3B17B689E4205D13968D8F80030FA690F
:1058580041B90AE0304600F0BBF90028F4D14FF016
:10586800FF330DE0934208DB01E0934207DABA6B9D
:105878009342ACBF0023012302E0002300E0012390
:105888002362236A3C20012B0CBFF96B396A4FF461
:10589800616391FBF3F603FB161393FBF0F200FB35
:1058A800123061682368891AA2681B1A921B3B2B65
:1058B80023606160A26003DD013161603C3B04E06C
:1058C800002B03DA013961603C33236063683B2BAA
:1058D80003DD0132A2603C3B04E0002B03DA013A0D
:1058E800A2603C336360A368172B22DDE269183B92
:1058F8000132E261A269A3600132062AC8BF002210
:10590800A261E26823690132E26055F823108A42F5
:1059180046DD01330C2B08BF6369A2EB0102E2608C
:1059280005BF013300222361226104BF6361E26184
:1059380036E0002B34DAE2691833013AE261A269F1
:10594800A360013A48BF0622A261E268013AE26018
:1059580032BB2369013B01D423611DE00B23236182
:1059680063695A1E12F0030F626103F26B7305D16B
:10597800642193FBF1F201FB12324AB94FF4C8716A
:1059880093FBF1F201FB1233B3FA83F35B0900E0F6
:10599800012303F5B673E361236955F82330E36007
:1059A80000F0BFF92046BDE8F08100BF10690A0881
:1059B800D00A002010B5431E0A44914204D011F8C1
:1059C800014B03F8014FF8E710BD03460244934228
:1059D80002D003F8011BFAE77047000038B5124BF4
:1059E80005461C68A36BD3B91820FBF7CDFE43F21C
:1059F8000E33A06303804AF6CD33438041F234234B
:105A080083804EF26D63C3804DF6EC6303810523FA
:105A180043810B23838101220023C0E90423A36B64
:105A280000221D615A6138BD9003002010F8012B37
:105A380011F8013B012A28BF9A42F7D0D01A7047C3
:105A4800034611F8012B03F8012B002AF9D17047FE
:105A5800024B0146186800F003B800BF900300200D
:105A680070B5064608460C4600F00DF8451C294658
:105A78003046FBF7C1FE064618B12A462146FFF715
:105A880099FF304670BD034613F8012B002AFBD15D
:105A9800181A0138704730B582B1451E013915F81A
:105AA800013F11F8014FA34206D1EC431444E042F0
:105AB80001D0002BF3D11C46181B30BD104630BD59
:105AC8002DE9F0470E4680463B48D0F80090354611
