:02000004080AE8
:1000000000000A0830690A08000006000600050121
:080010000402BD040000000021
:1000180040600A0809480A4908B5884205D0094AD3
:10002800824202D0121A05F0E9FB0748074A00216C
:10003800121A05F0EEFB064808BD00BF00030020B9
:1000480034680A08D4030020D4030020CC0A002016
:10005800CC0A002070B502F077FC074B074C1E460F
:10006800E41AA4080025A54204D056F8253098477C
:100078000135F8E770BD00BFF4670A082C680A0864
:1000880000F09CBB08B500F07DFBBDE8084002F01D
:100098001DBC01F0A1BA01F0A7BA0078B0FA80F04F
:1000A8004009704701230370704710687047036860
:1000B8001847012A02D0022A02D004E0016002E0B7
:1000C8000B6800B10360002070470000014800F091
:1000D8003BBE00BF38040020436913B183690C306C
:1000E8001847704713B504460021084601F026F862
:1000F80002A90023204641F8043D01F037F8019C8D
:100108000CB1012323710021012001F017F82CB153
:10011800236820469B6898470023237102B010BDCE
:1001280038B51D4B05461A681C46022A03DD1B49D3
:1001380002F066F9D0B92368012B2ADC1849284651
:1001480002F05EF928B302F0CDFA164901F051FF2A
:1001580001210A2002F059FC4FF4FA7001F084FAE8
:1001680000210A2002F051FC002038BD02F0BAFA42
:100178000D4901F03EFF01210A2002F046FC4FF430
:10018800FA7001F071FA00210A2002F03EFC012009
:1001980038BD4FF0FF3038BD14030020C6600A0890
:1001A80068600A0886600A086E600A0838B50F4950
:1001B800054602F025F9044618B10D4B01201870C8
:1001C80038BD0C49284602F01BF918B1084B2046E7
:1001D8001C7038BD0849284602F012F910B1044BCA
:1001E800187838BD4FF0FF3038BD00BFD0620A081C
:1001F800940400209E600A08A2600A0810B504460C
:1002080003689B689847A368013BA3602BB92368E0
:100218002046BDE81040DB68184710BD1FB50A4BE3
:1002280002A81B78094A8DF8003009493C2301F0DF
:10023800B1FB039828B14368013B43600BB9FFF752
:10024800DDFF05B05DF804FBD8030020A9600A08AB
:10025800AF600A0810B58368044613B1032201464B
:100268009847204610BD07B58068002338B18DE84F
:100278000A00022100F082FFB0FA80F0400903B0C2
:100288005DF804FB38B5104B044603608368A3B1DE
:100298006FF000410022FFF7E6FF0021A06800F0A0
:1002A8007DFF237903F0FF0513B100F03FFFF8E766
:1002B8002946A06800F052FFA56004F10C00FFF782
:1002C800C9FF204638BD00BF5C600A0810B5044667
:1002D800FFF7D8FF20461C2102F023FC204610BD62
:1002E80037B5002002F0AAFB0546012002F0A6FB64
:1002F800012D044622D1002849D12E4B1A68012A23
:1003080056DD1D602C492D4D2D4802F068F802F08D
:10031800E9F92C4901F06DFE224621462846FFF7EF
:10032800A2FFA868002843D06FF00043009301940F
:1003380023462246214600F021FF39E0002D37D11F
:10034800A8B91C4B1A68022A32D002221E491C483E
:100358001A6002F044F802F0C5F91C4901F049FEA0
:1003680022466FF000411548FFF77DFF20E0012885
:100378001ED1104B1A68022A1ADC032214491048AD
:100388001A6002F02CF802F0ADF912490BE00128CE
:100398000ED1114B0022114909481A7002F01FF8BA
:1003A80002F0A0F90E4903B0BDE8304001F021BECB
:1003B80003B030BD14030020C6600A08980400206A
:1003C800F4030020BA600A08DA600A08CB600A0859
:1003D800F1600A08E5600A0894040020F8600A0839
:1003E80007610A081FB50A4B02A81B78094A8DF84D
:1003F800003009493C2301F0CDFA039828B143683D
:10040800013B43600BB9FFF7F9FE05B05DF804FB4B
:10041800D8030020A9600A081C610A082DE9F341E5
:1004280000F0DCFE8A4E3368834280F00D81894CEF
:10043800237873B902F056F9874901F0C7FD02F035
:1004480051F9864901F0C2FD854800F0FDFB012302
:100458002370834800F0C4FC824F002840F0CD8010
:100468007F4800F0C9FC054602F03CF97E4901F0DE
:10047800ADFDE81D07283DD8DFE800F0352E272020
:1004880019120B0402F02EF9784901F0B2FD7749F0
:1004980036E002F027F9764901F0ABFD74492FE008
:1004A80002F020F9734901F0A4FD724928E002F036
:1004B80019F9714901F09DFD6F4921E002F012F927
:1004C8006E4901F096FD6D491AE002F00BF96C498E
:1004D80001F08FFD6A4913E002F004F9694901F05F
:1004E80088FD68490CE002F0FDF8674901F081FDDC
:1004F800654905E002F0F6F8644901F07AFD6349C0
:10050800634801F06CFF02F0EDF8624901F05EFD0E
:1005180002F0E8F88046524800F08AFC04F032FA0B
:10052800012502460B460095404601F069FE4C48FD
:1005380000F07EFC584904F0CFFE02F03FFC04F0C6
:1005480021FA0022554B04F09BFB554BC3E90001EF
:1005580002F0C8F8534901F039FD02F0C3F88046AB
:100568003F4800F04BFC504904F0ACFD04F00AFA97
:10057800009502460B46404601F042FE384800F01E
:100588003DFC494904F09EFD434904F0A5FE02F0F4
:1005980015FC04F0F7F90022404B04F071FBC7E9A1
:1005A800000102F09FF8414901F010FD02F09AF8AD
:1005B80080462B4800F058FC022502460B46404670
:1005C800009501F01DFE02F08DF8394901F0FEFC9E
:1005D80002F088F88046224800F0AEFC00950246FA
:1005E8000B46404601F00CFE0023237000F0F6FD98
:1005F80000F5122000F5F8603060D7E900450022C8
:100608002C4B2046294604F083FC38B12A4E337817
:1006180093B9FFF7E7FE0123337015E00022274B5B
:100628002046294604F088FC70B1234B1B785BB147
:10063800214B00221A7007E00022204B2046294651
:1006480004F07AFC0028F3D102B0BDE8F08100BFC5
:10065800DC0300201004002028610A082B610A0826
:10066800380400200003002050610A085E610A086F
:1006780061610A0878610A0893610A08B3610A0887
:10068800CF610A08E1610A08FD610A0811620A08D7
:10069800240400201F620A080000204100002440B2
:1006A800080300202E620A086666964042620A081D
:1006B80054620A0800000840340400200000144076
:1006C80030B585B000F08AFD104C2368C01A104B75
:1006D8001B68984217D9002000F016FF02F002F8B4
:1006E800054601F0FCFE0146684601F0B5FE009B98
:1006F800084A0021284601F091FD684601F0FBFDFB
:1007080000F06CFD206005B030BD00BF080400207B
:10071800100300206B620A0870B50E4614460546A1
:1007280000F05CFD3219B0FBF2F303FB12008642C5
:10073800C8BF0021A8B2D8BF0121BDE8704002F0AF
:1007480064B9000010B50E4C00221146606800F034
:100758000BFF024630B100F0C7FE80B964224FF4A7
:100768007A7107E00146606800F0FEFE38B94FF480
:10077800FA721146BDE810400620FFF7CDBF10BD44
:10078800A009002008B5FFF7DDFFFFF747FEFFF7D8
:10079800A7FDBDE80840FFF793BF000007B5082391
:1007A800ADF80030044B042201936B4600F084FE40
:1007B80003B05DF804FB00BFB3000A0810B58CB0A5
:1007C80001F090FF4FF4165101F072FF01F08AFF1B
:1007D80004461C230CA820F81C3D002100F038FE1C
:1007E80007A901A801F0CEFD019B324A012120464C
:1007F800314C01F013FD01A801F07DFD01F072FFFD
:1008080023682E4A012101F009FD01F06BFF2C49F4
:1008180001F0EFFB21462B48FFF7C0FF2A492B4880
:10082800FFF7BCFF0023092229492A4800F044FEAB
:10083800002309222849294800F03EFE284C29496E
:100848002948FFF7ABFF29492948FFF7A7FF294A9D
:100858002949204600F066FF284A2949204600F029
:1008680061FF01210A2002F0BFF80121072002F0F0
:10087800BBF80121062002F0B7F80121032002F09D
:10088800B3F80021042002F0AFF80321002002F0A1
:10089800ABF80321012002F0A7F800210A2002F09A
:1008A800B4F8184B1B685A6DB3F8583053830CB022
:1008B80010BD00BF90620A0814040020A3620A0851
:1008C800B8620A08C8620A0824040020D3620A0829
:1008D800000300201C610A0808030020DE620A08E1
:1008E80001170A08F4030020E7620A08E40300205D
:1008F800F7620A0804630A0829010A0812630A0849
:10090800B5010A080C0400202DE9F0413F4B88B0DE
:1009180000271F7000F07AFC3D4E3E4BDFF838810F
:1009280018603D4D3D4C3146404601F02BFD404698
:10093800DFF828812A46214602F0EEF83849404679
:1009480001F020FD4046DFF818812A46214602F0D2
:10095800E3F83146404601F015FD4046DFF80481D2
:100968002A46214602F0D8F83146404601F00AFDF1
:100978002A462146404602F0CFF816220221294B8A
:10098800294800F056F9012000F042FD00F026FC4D
:10099800264B04AE186000F021FC254B254C18604E
:1009A80000F01CFC244B02AA1860244B2771049306
:1009B80096E80300224B82E80300236004F10C034D
:1009C80093E8030086E8030092E8030083E8030045
:1009D8001C4BA7606361A3691B4A07931B4B1C4907
:1009E800A361012300930197234604F108000697A9
:1009F80000F0ACFB3046FFF72DFC2A46154920468F
:100A080002F08AF808B0BDE8F08100BFD8030020E2
:100A180020630A080C040020D4030020FF220A08DF
:100A28002F630A08D5000A083804002008040020AB
:100A3800E0030020980400200404002025020A088E
:100A48005C600A08BB000A08ED000A08B7000A083B
:100A5800A0BB0D008D020A08240400201404002005
:100A6800E4030020F403002003685A68986812F031
:100A7800010F4FEA620218BF81581B68104418BF63
:100A8800CB58184770B5044600F0A0FB41F27072CD
:100A9800A36BA063C31A93420BD96FF00103E362FF
:100AA800032384F82930B4F84400BDE8704001F00D
:100AB80023B994F8292002F0FF0112B1012920D0AE
:100AC80070BD402B03D8A26BD31AA36370BDA3F1EA
:100AD8007E02492ADDB205D8236C5A1C22641D7097
:100AE800012371E0B4F8440001F006F9226C6FF0BC
:100AF8000203E362032384F82930531C236415702E
:100B080070BDA3F13D025D2A4FD894F836106E2BC4
:100B1800214491F830204FEA4202D2B281F83020C5
:100B280008D994F83620224492F8301041F0010197
:100B380082F83010226CDBB2511C2164137094F8D7
:100B4800353003F0FF054BBB072384F8353094F8A4
:100B580036300133DBB2052B84F8363036D1B4F8A1
:100B6800440001F0C9F894F8306094F8312094F802
:100B78003230324494F83300134494F83410034468
:100B8800DBB28B4202D04FF0FF331BE00223E56259
:100B980084F82930012384F83C3070BD94F835304E
:100BA800013BDBB284F8353070BD606C092B80B234
:100BB80004D801F0A1F86FF0050303E001F09CF8F8
:100BC8006FF00303E362032384F8293070BD022A1F
:100BD80038B5044605D0032A0FD0012A11D10B6875
:100BE80009E00C200D68FFF754FA034618B195E8A0
:100BF800070083E80700236003E00C21006801F088
:100C080090FF002038BD38B504468DB24164826437
:100C18000121284601F0E8FE0121284601F0F5FEF1
:100C28000023E364032384F829306FF00603E362AA
:100C380038BD10B504460023FFF7E5FF012384F80B
:100C48005030204610BD000070B5044686B000F054
:100C5800C5FA94F8503023B9E36CC31AB3F5FA6FA8
:100C68000AD394F82930032B08D094F82930022BA2
:100C780004D06FF004005FE002205DE000231A4614
:100C880084F85030E06484F82930E2540133292B89
:100C98004FF00005F9D1072384F8305084F831501B
:100CA80084F8325084F8335084F8345084F835305E
:100CB80000236365A3650121B4F84400246484F823
:100CC800365001F091FE2946B4F8440001F09DFE2B
:100CD800A36C0B2B03D1122000F0C6FC03E040F2FA
:100CE800DC5000F06BFA0021B4F8440001F07CFEFF
:100CF80000F06CFA0025A0630C20B4F84460049559
:100D0800FFF7C7F918B10D4B846080E828000C4B39
:100D1800029005930B4B022204930023009302A92F
:100D28004FF0FF33304601F02BF8049B1BB102A9AA
:100D3800032208469847012006B070BD8D0A0A08AC
:100D4800710A0A08D70B0A08704700000000000063
:100D580010B5836C04460B2B30D039DB153B012BC7
:100D680036D890F8300094F8313003EB002080B288
:100D780003F0F6FD18A3D3E9002303F057FE04F0AF
:100D88004DF994F83230606594F8320013F0800F12
:100D980094F833301BBF00F07F0003EB002003EB17
:100DA8000020404208BF80B203F0DAFD0AA3D3E96D
:100DB800002303F03BFE04F031F908E090F830001E
:100DC80004F032FA606594F8320004F02DFAA06558
:100DD800002384F83C3010BD9A9999999999B93FA4
:100DE80090F82930022B05D090F82900033818BF55
:100DF8000120704700207047C06A704710B590F80E
:100E080029300446032B03D1C06A04F011FA10BD3F
:100E180090F82930022B06D190F83C300BB1FFF73F
:100E280097FFA06D10BD014810BD00BF0000A0C015
:100E380010B590F829300446032B03D1C06A04F09A
:100E4800F7F910BD90F82930022B06D190F83C3004
:100E58000BB1FFF77DFF606D10BD014810BD00BFED
:100E68000000A0C0000000002DE9F84390F82930E8
:100E78000446032B04D1C06A03F072FDBDE8F88371
:100E880090F82930022B46D190F83C300BB1FFF78F
:100E98005FFFA06D03F076FD0646606D0F4603F018
:100EA80071FD0022224B03F0EBFE01F0ABFF1CA307
:100EB800D3E9002304460D463046394603F0B6FD13
:100EC80019A3D3E90023804689463046394603F002
:100ED800FBFB02460B464046494603F0D1FE22463C
:100EE8002B4603F0F1FB10A3D3E9002306460F4677
:100EF80003F09CFD324604460D4609A1D1E90001E4
:100F08003B4603F0DFFB02460B462046294603F02A
:100F1800B7FEBDE8F88300200649BDE8F88300BFA6
:100F28004C378941604531406666666666B66D40F5
:100F380000005940000014C02DE9F04790F829300E
:100F48008246032B04D1C06A03F00AFDBDE8F0878E
:100F580090F82930022B40F0AB8090F83C300BB170
:100F6800FFF7F6FEDAF8580003F00CFD52A3D3E9B8
:100F7800002303F0A9FB02460B4651A1D1E9000169
:100F880003F07EFE0022644B04460D4603F09AFBF4
:100F98004DA3D3E9002306460F4603F047FD8046DC
:100FA80089462046294601F0ADFF49A3D3E900232D
:100FB80003F03CFD42464B4603F086FB2246804642
:100FC80089462B460020544903F05AFE02460B4638
:100FD8000020514903F076FB3FA3D3E9002303F037
:100FE80025FD02460B4600204C4902F00DF8002270
:100FF800494B03F067FB3AA3D3E9002303F016FD3E
:1010080042464B4603F060FB37A3D3E9002304466E
:101018000D463046394603F009FD02460B460020CE
:101028003E4901F0F1FF00223B4B03F04BFB30A39C
:10103800D3E9002303F0FAFC22462B4603F044FBD5
:101048002DA3D3E9002303F03FFB0022344B03F028
:1010580039FB02460B460020304901F0D5FF044613
:101068000D46DAF8540003F08DFC22462B4603F0B7
:10107800DDFC23A3D3E9002303F002FE01F0C2FE46
:1010880021A3D3E9002306460F4603F0CFFC3246DE
:1010980004460D461EA1D1E900013B4603F012FBB0
:1010A80002460B462046294603F0EAFDBDE8F087D4
:1010B80000201C49BDE8F0876666666666127140C6
:1010C8006666666666527740B1C403CAA69C1FC0AE
:1010D800CDAFE600C11C1440E3A59BC420B0264058
:1010E800B13D4236248B82BE037D224F92EE0BC067
:1010F800630333F0EDA7803F1B549E40B40B0840B8
:10110800CFA0A17F828BE33F5C8FC2F5283C6E4065
:10111800022B8716D98E31400000F03F0000244092
:1011280000000840000014C000F070B808B5024B79
:101138001B68DB68019308BDD001060808B5024B9F
:101148001B68DB69019308BDD001060808B5024B8E
:101158001B681B6A019308BDD001060808B5024B3D
:101168001B685B6A019308BDD001060808B5024BED
:101178001B689B6A019308BDD001060808B5024B9D
:101188001B68DB6A019308BDD001060808B5024B4D
:101198001B681B6B019308BDD001060808B5024BFC
:1011A8001B681B6F019308BDD001060808B5024BE8
:1011B8001B685B68019308BD9C01060808B5024BD3
:1011C8001B68DB68019308BD9C01060808B5024B43
:1011D8001B681B69019308BD9C01060808B5024BF2
:1011E8001B685B69019308BD9C01060808B5024BA2
:1011F8001B68DB69019308BD9C01060808B5024B12
:101208001B689B6D019308BD9C01060808B5024B3D
:101218001B681B68019308BDB001060808B5024B9E
:101228001B689B68019308BDB001060808B5024B0E
:101238001B68DB68019308BDB001060808B5024BBE
:101248001B681B69019308BDB001060808B5024B6D
:101258001B685B69019308BDB001060808B5024B1D
:101268001B689B69019308BDB001060808B5024BCD
:101278001B68DB69019308BDB001060808B5024B7D
:101288001B681B6E019308BDAC01060808B5024B2C
:101298001B685B6E019308BDAC01060808B5024BDC
:1012A8001B689B6E019308BDAC01060808B5024B8C
:1012B8001B68DB6E019308BDAC01060808B5024B3C
:1012C8001B681B6F019308BDAC01060808B5024BEB
:1012D8001B685B6F019308BDAC01060808B5034B9A
:1012E8001B68D3F88030019308BD0000AC010608E4
:1012F80008B5024B1B68DB69019308BDB4010608F9
:1013080008B5024B1B681B6A019308BDB4010608A7
:1013180008B5024B1B689B69019308BDC401060808
:1013280008B5024B1B685B6A019308BDC401060837
:1013380008B5024B1B689B6A019308BDC4010608E7
:1013480008B5024B1B68DB6A019308BDC401060897
:1013580008B5024B1B681B6B019308BDC401060846
:1013680008B5024B1B685B6B019308BDC4010608F6
:1013780008B5024B1B689B6B019308BDC4010608A6
:1013880008B5024B1B681B6C019308BDC401060815
:1013980008B5024B1B681B68019308BDD8010608F5
:1013A80008B5024B1B685B68019308BDD8010608A5
:1013B80008B5024B1B681B69019308BDD8010608D4
:1013C80008B5024B1B685B69019308BDD801060884
:1013D80008B5024B1B689B69019308BDD801060834
:1013E80008B5024B1B68DB69019308BDD8010608E4
:1013F80008B5024B1B681B6A019308BDD801060893
:1014080008B5024B1B689B6C019308BDC001060818
:1014180008B5024B1B681B6D019308BDC001060887
:1014280008B5024B1B681B68019308BDA401060898
:1014380008B5024B1B685B68019308BDA401060848
:1014480008B5024B1B685B69019308BDA401060837
:1014580008B5024B1B681B6B019308BDA401060865
:1014680008B5024B1B68DB6C019308BDA401060894
:1014780008B5024B1B685B6D019308BDA401060803
:1014880008B5024B1B689B6D019308BDA4010608B3
:1014980008B5034B1B68D3F89030019308BD0000D2
:1014A800A401060808B5034B1B68D3F89C300193C8
:1014B80008BD0000A401060808B5024B1B681B689C
:1014C800019308BDCC01060808B5024B1B685B6890
:1014D800019308BDCC01060808B5024B1B689B6840
:1014E800019308BDCC01060808B5024B1B685B696F
:1014F800019308BDCC01060808B5024B1B681B6A9E
:10150800019308BDCC01060808B5024B1B68DB6ACD
:10151800019308BDCC01060808B5024B1B681B6B7C
:10152800019308BDCC01060808B5024B1B68DB6BAC
:10153800019308BDCC01060808B5024B1B685B681F
:10154800019308BDC801060808B5024B1B689B68D3
:10155800019308BDC801060808B5024B1B68DB6883
:10156800019308BDC801060808B5024B1B681B6932
:10157800019308BDC801060808B5024B1B685B69E2
:10158800019308BDC801060808B5024B1B689B6992
:10159800019308BDC801060808B5024B1B68DB6942
:1015A800019308BDC801060808B5024B1B681B6AF1
:1015B800019308BDC801060808B5024B1B681B6BE0
:1015C800019308BDC801060808B5024B1B685B6B90
:1015D800019308BDC801060808B5024B1B681B68C3
:1015E800019308BDA001060808B5024B1B685B689B
:1015F800019308BDA001060808B5024B1B689B684B
:10160800019308BDA001060808B5024B1B681B69B9
:10161800019308BDA001060808B5024B1B689B6929
:10162800019308BDA001060808B5024B1B685B6A58
:10163800019308BDA001060808B5024B1B68DB6AC8
:10164800019308BDA001060808B5024B1B681B6B77
:10165800019308BDA001060808B5024B1B68DB6BA7
:10166800019308BDA00106080021FFF7E9BE10B5E7
:10167800836804460BB901F056FAC3689847A36813
:101688001BB103222146204698472046BDE810405A
:10169800102101F046BA70470020704710B5044683
:1016A800102101F03EFA204610BD08B508B1FFF739
:1016B800F5FF08BD38B5C468ECB12378022B02D118
:1016C800E068FFF791FF656835B12846FEF7C2FD6F
:1016D8001021284601F025FAA56835B12846FEF7FD
:1016E800B9FD1021284601F01CFA2046BDE8384013
:1016F800142101F016BA38BD10B588B00446684602
:1017080000F040FE694604A800F05EFE04A8A04769
:10171800044604A800F0EFFD684600F0ECFD204602
:1017280008B010BDF0B507460E46154685B0102422
:1017380022460021684604F06CF8002269461046EB
:10174800ADF80040029703960195FFF7BDFE05B07E
:10175800F0BD38B5046805467CB16368013B636039
:101768005BB9236820469B689847A368013BA36040
:101778001BB923682046DB689847284638BD13B54F
:10178800044691E8050000234B600B60206062600E
:1017980001A801930093FFF7DCFF204602B010BDBB
:1017A8000B68036013B15A6801325A607047F7B585
:1017B8000C4606460F4654F8043B02AD45F8083D72
:1017C800214601A8FFF7ECFF29463046FFF7D7FF6F
:1017D80001A8FFF7BEFF2046FFF7BBFF38460821E8
:1017E80001F09FF9304603B0F0BD13B50B4604462F
:1017F80003C88DE8030093E8030084E803009DE82C
:10180800030083E8030002B010BD826810B50AB96E
:1018180001F089F9C368BDE81040184708B50068A9
:1018280000F11001FFF7F1FF08BD826810B50AB991
:1018380001F079F9C368BDE81040184708B5006899
:1018480000F11001FFF7F1FF08BD38B500238360F0
:101858008B6804460D462BB102229847EB68E3607B
:10186800AB68A360204638BD2DE9F0414FF69C7364
:1018780004684FF0020086B0B1F904208B80002381
:101888000F688DF800300B60D4E84F1F994203D1E0
:10189800C4E8450F002DF7D102D08DF800106CE098
:1018A80014F10C051CBFE7602282BFF35F8F18BFDD
:1018B8001F4601236370BFF35F8F04F10803002004
:1018C80053E8006F43E80002002AF9D1BFF35F8FA5
:1018D800002E52D0FFF7C4FD20B129463046FFF74D
:1018E80094FF43E031466846FFF7AFFFE068B4F97C
:1018F800105008B103F0D0FF04901020ADF8145038
:10190800FEF7C7FB054630B34FF00008C0F8088063
:101918001820FEF7BEFB0446C0B1C0F80880014697
:101928006846FFF762FF029BA268A360039B0292CE
:10193800E268E360BDF814300392A3824FF69C730B
:10194800ADF81430049BCDF8108023610E4B2C6049
:10195800EB600E4BAB600498FFF746FE6846FEF757
:1019680079FC002229460A48FFF782FD3046FEF737
:1019780071FC1021304601F0D4F83846FFF734FEE8
:1019880006B0BDE8F08100BF25180A08851A0A08C4
:1019980077160A082DE9F04F8BB007AD4FF0000B12
:1019A8000646994614200C230F4690469DF850A0F1
:1019B800C5F804B0C5F808B00793FEF76AFB0446FB
:1019C80038B180F800B080F801B0C0F804B0C0F8B1
:1019D80008B00023102003940493FEF75AFB28B1A3
:1019E800012343608360234BC4600360224B04904F
:1019F80008200893FEF74DFB044628B1039B04A971
:101A080040F8043BFFF7CCFE00955FFA8AF34A469C
:101A1800414638460994FFF76FFDB8B9039B5B78D8
:101A280003F0FF0293B94FF69C7305A903A805922A
:101A3800ADF81830FFF718FF0598FFF7D5FD05A892
:101A48000999FFF7B4FE06A8FFF783FE039B04A9D4
:101A580006A80593FFF7A4FE05A93046FFF78FFEF9
:101A680006A8FFF776FE04A8FFF773FE30460BB012
:101A7800BDE8F08F40630A08F11B0A08022AF8B58E
:101A8800044606D0032A17D0012A21D10B68036027
:101A98001EE018200E68FEF7FCFA054650B13146E4
:101AA800FFF7D3FE3069B6F9147008B103F0F4FEFD
:101AB8002861AF8225600BE004684CB12069FFF70C
:101AC80093FD2046FEF7C6FB1821204601F029F8B1
:101AD8000020F8BD38B5002383608B6804460D46A6
:101AE8002BB102229847EB68E360AB68A3602046FD
:101AF80038BD022A70B5044606D0032A11D0012A3F
:101B080018D10B68036015E014200E68FEF7C1FABF
:101B1800054620B13146FFF7DDFF337C2B74256085
:101B280008E0046834B12046FEF794FB14212046EF
:101B380000F0F7FF002070BDF0B50C46BFF35F8FD3
:101B480087B0002350E8006F40E80032002AF9D13E
:101B5800BFF35F8F002E3FD01846FFF781FC074682
:101B680020B121463046FFF760FE2EE0314601A83D
:101B7800FFF7B0FF237810208DF81430FEF789FAAC
:101B88000546D0B187601420FEF783FA044678B181
:101B98008760014601A8FFF728FE039BA268A3609F
:101BA800049B0392E268E3609DF814300492237466
:101BB8000A4B2C60EB600A4BAB6001A8FEF74AFBAE
:101BC800002229460748FFF753FC3046FEF742FB40
:101BD8001021304600F0A5FF07B0F0BD45180A08EF
:101BE800FB1A0A0877160A0830B5044685B00D4670
:101BF80068461146FFF7DBFD7CB124B228460DB1DB
:101C080003F04AFE029002A96846ADF80C40FFF7BF
:101C18002BFE0298FFF7E8FC1DE04FF00102009848
:101C28008DF80840D0E84F3FA34203D1C0E8412FC8
:101C38000029F7D102D08DF808300CE010F10C0122
:101C48004FF0010318BF0373BFF35F8F043000F830
:101C5800033CFFF771FF01A8FFF77BFD05B030BD1E
:101C68007047F8B5064615460C468F18BC4206D094
:101C7800336814F8011B9B6830469847F6E72846F6
:101C8800F8BD0022007CFFF7F9BA0021007CFFF7BD
:101C9800FDBA0021007CFFF701BB0021007CFFF7A3
:101CA80005BB0021007CFFF709BB10B504461421D1
:101CB80000F037FF204610BD10B5044608464FF423
:101CC8007A73A360044B0021207461602360FFF7DE
:101CD80005FB204610BD00BF5C630A080021007C9C
:101CE800FFF7F4BA826810B50AB900F01CFFC368A0
:101CF800BDE810401847000070B50646FFF7B6FA71
:101D0800074B53F826501C4635B12846FEF7A2FA71
:101D18001021284600F005FF002344F8263070BD46
:101D2800B404002038B5002383608B6804460D4650
:101D38002BB102229847EB68E360AB68A3602046AA
:101D480038BD0000F8B50D4B064653F820500F4635
:101D58001C4635B12846FEF77DFA1021284600F0CA
:101D6800E0FE1020FEF795F9054610B13946FFF759
:101D7800D9FF44F826502846F8BD00BFB404002017
:101D8800F0B50C46054685B017461E46FFF76EFAB5
:101D980021462846FFF7D6FF0446B8B100210423A0
:101DA8008E4203918DF80C30B4BF0B469DF8283055
:101DB8000246A4BF8DF80E3003AB009306493B469C
:101DC8002846A8BF8DF80D60FFF748FA201C18BFF9
:101DD800012005B0F0BD00BFED1C0A08704710B522
:101DE8000446182100F09DFE204610BDF8B50F46A8
:101DF80000F10806051D002416F8011D0A223846C0
:101E080000F02BF9AE42044407D0002CF4D02E2168
:101E1800384600F0DFF80444EEE72046F8BD00003D
:101E280010B50446044B112240F8043B002103F08E
:101E3800F0FC204610BD00BF84630A080346074A29
:101E480010B543F8042B01F1100251F8044B9142EC
:101E580043F8044BF9D10A781A7010BD84630A0854
:101E6800024A4160026004220275704784630A08CE
:101E780010B59DF8084044EA032343EA024242EAC7
:101E8800016104234160037510BD000037B5044D9E
:101E980005609DF818500095FFF7EAFF03B030BDC4
:101EA80084630A08014A024B1A60704749640A08A9
:101EB8001405002000231A464068FFF73DBB0022A6
:101EC80002214068FFF748BB002211464068FFF72F
:101ED8003BBB002211464068FFF746BB00231A4669
:101EE80019464068FFF748BB00231A461946406860
:101EF800FFF74ABB002281F001014068FFF74CBBA5
:101F080000224068FFF758BB002211464068FFF7DF
:101F18005BBB002211464068FFF746BB70B516460A
:101F28008EB0044608A8FFF77BFF1122002103A802
:101F380003F06FFC304603F0CAFC00250A4B0095FD
:101F480081B25B6803AA3046FFF75AFA20B12946E6
:101F58002046FFF785FF03E003A92046FFF76EFF41
:101F680020460EB070BD00BFA0090020024B034AF6
:101F78001A6000225A6070471805002070640A0829
:101F8800F8B506460D468F180024BD420CD03368BC
:101F980015F8011B9B6830469847002801DB04446C
:101FA800F3E7002C08BF04462046F8BD70B5054687
:101FB8000C46084649B103F08AFC2B6802462146C4
:101FC8002846BDE87040DB68184770BD08B5FFF7C4
:101FD800EDFF08BD03689B68184738B50D21054615
:101FE800FFF7F8FF0A2104462846FFF7F3FF2044CD
:101FF80038BD38B50546FFF7D9FF04462846FFF730
:10200800ECFF204438BD012A98BF0A2230B50B46A0
:102018008BB000218DF824100DF12304B3FBF2F5E9
:1020280005FB1233DBB2092B94BF30333733DBB2F5
:10203800214604F801392B46002DEFD1FFF7B6FFF2
:102048000BB030BD10B422B90368C9B29B6810BC8C
:102058001847D2B210BCFFF7D6BFFFF7F3BF2DE980
:10206800F04107460E4615462AB9BDE8F041036817
:10207800C9B29B6818470A2A02D1002901DA04E08C
:10208800D2B2BDE8F041FFF7BEBF2D21FFF7A2FF96
:102098002A46044671423846FFF7B5FF2044BDE89A
:1020A800F08100002DE9F84319468046104617468E
:1020B8001E469DF8205002F053FF08B1474912E030
:1020C80026F000444FF0FF32454B3846214602F0D7
:1020D80047FF68B94FF0FF32414B3846214602F0BE
:1020E80021FF28B93F494046FFF760FFBDE8F88364
:1020F8004FF060423C4B3846314602F027FF08B1AA
:102108003A49F0E74FF06042394B3846314602F021
:10211800FFFE0028F4D1002200233846314602F0A1
:10212800F7FE38B12D214046FFF754FF06F100466F
:10213800044600E004462F494FF0000900205FFAEA
:1021480089F39D4206D900222B4B02F099FD09F133
:102158000109F4E73A46334602F0B6FA0F46064656
:1021680002F03CFF0A22014681464046FFF74BFF3A
:1021780004447DB3484602F0E3FB02460B46304672
:10218800394602F09FFA06460F4640461B49FFF7BC
:102198000DFF0444184B00223046394602F046FC35
:1021A8000F46064602F0F2FE0A22014681464046E4
:1021B800FFF755FF0444484602F0D2FB02460B469F
:1021C8003046394602F07EFA013D15F0FF05064615
:1021D8000F46DFD12046BDE8F88300BF9C640A089B
:1021E800FFFFEF7FA4640A08FFFFEF41A0640A081D
:1021F800FFFFEFC10000E03F0000244084600A08B0
:1022080037B59DF8181005460091FFF74BFF0446B7
:102218002846FFF7E2FE204403B030BD0CB42DE998
:10222800F04387B000AF07F1380454F8049B054623
:102238000E4623464A461421381D3C60FFF7F4F940
:10224800132805D8391D2846FFF7B0FE044613E0C9
:1022580000F1080323F00703E846ADEB030D411C2A
:1022680023464A4668463C60FFF7DEF96946284639
:10227800FFF79CFE0446C5461EB12846FFF7ADFE93
:10228800044420461C37BD46BDE8F04302B0704701
:1022980010B50446FDF7DEFF204610BD03480023B5
:1022A8008360034A034900F037BC00BF20050020C3
:1022B800D403002099220A08704710B5044610215B
:1022C80000F02FFC204610BD70B504460E46074BA3
:1022D8000025036040F80C5FFEF758FF3046267172
:1022E800FFF706F8A560204670BD00BFB0640A0875
:1022F8000079FFF705B810B504460068FFF774F9D0
:10230800204610BD10B50446006808B1FFF76CF907
:1023180000232360A360636010BD38B504460D46F2
:1023280000680131FFF768F910B184E82100012045
:1023380038BD10B50368044613B143688B4207D211
:102348002046FFF7EAFF20B1A3680BB92268137093
:10235800012010BD70B50E46114604461546FFF71C
:10236800E8FF18B92046FFF7CDFF09E02A463146B5
:10237800A560206803F042FA2268A3680021D154BE
:10238800204670BD38B5002304460360436083606F
:1023980003730D4639B1084603F099FA29460246F7
:1023A8002046FFF7D7FF204638BD884210B50B46B8
:1023B800044607D0096819B19A68FFF7CBFF01E016
:1023C800FFF7A0FF204610BD10B5044600230360A8
:1023D800436083600373FFF7E8FF204610BD38B5FC
:1023E80005460C4641B1084603F071FA21460246FB
:1023F8002846FFF7AFFF01E0FFF784FF284638BD06
:1024080008B582680B4612B919B9012008BD11B97F
:102418000368187802E0006803F02CFAB0FA80F03C
:10242800400908BD4FF6FF72034B00201870588012
:102438009A80FEF7FDBF00BF3005002008B50020D8
:10244800FFF76AF828B1FFF74FF880F00100C0B233
:1024580008BD012008BD000037B50E4B04461B68B7
:1024680002A819440C4B1B68194440F8041D03F0DA
:10247800CDF803F081F8054603F029FA0023284433
:1024880000F8013C29462046FFF77CFF204603B0B0
:1024980030BD00BF400500203C05002010B50020DD
:1024A800FEF7ACFE044668B9FEF7BAFF01280BD167
:1024B8002046FEF7E5FF38B9FFF7C0FF30B9FFF750
:1024C8000BF8F9E7012010BD002010BDFFF7B6FF9B
:1024D8000020FEF793FE003018BF012010BD08B59C
:1024E800FFF7DCFFBDE80840FEF780BE024B1A6824
:1024F800024B1A60704700BF1803002038050020FF
:1025080070474174704708B5007CFEF739FF20EA30
:10251800E07008BD08B5007CFEF70AFF20EAE0700D
:1025280008BD08B5007CFEF713FF30EA200028BF7D
:102538004FF0FF3008BD08B5007CFEF701FF30EA18
:10254800200028BF4FF0FF3008BD007CFEF708BF11
:1025580010B50446142100F0E4FA204610BD70B509
:10256800457C04460E4625B9007CFEF709FF002885
:1025780005DD3146207CBDE87040FEF7D1BE284617
:1025880070BD000010B5044608461146002262607E
:102598004FF47A72A260054A2074226001226274A4
:1025A8001A46FEF7B5FE204610BD00BFE8640A08CB
:1025B800007CFEF7DDBE000038B50C4D296811F02F
:1025C800010411D12846FDF768FD68B1084A214683
:1025D800084B0948FFF7D6FF2846FDF763FD074A71
:1025E8000749054800F098FA034838BDDC05002083
:1025F800E00500205805002044050020D4030020F1
:1026080009250A0841747047704708B50021007C05
:10261800FEF7DEFE30EA200028BF4FF0FF3008BD8D
:1026280008B50121007CFEF7D3FE30EA200028BF60
:102638004FF0FF3008BD08B5007CFEF7C1FE20EA68
:10264800E07008BD08B5007CFEF7B2FE20EAE07035
:1026580008BD007CFEF7CCBE10B50446142100F07E
:1026680060FA204610BD38B50446007C0D46FEF7DA
:10267800A7FE002801DC607C28B12946207CFEF7F3
:10268800AFFE20EAE07038BD10B504460023636051
:102698004FF47A73A360054B084623600123217425
:1026A80063741146FEF774FE204610BD18650A08CB
:1026B8000022007CFEF774BE10B5044614220021E7
:1026C80003F0A7F8054B20466360054BE36040F232
:1026D800011323818123238210BD00BFE906002056
:1026E8006806002030B50E4D87B001A8FFF7E4FF5B
:1026F800296811F0010410D12846FDF7CEFC60B11D
:1027080001AA21460748FFF7BFFF2846FDF7CAFC84
:10271800054A0649034800F0FFF9024807B030BDF2
:1027280064060020EC070020D403002011260A08C4
:1027380010B504461422002103F06BF8054B20461F
:102748006360054BE36040F20113238181232382F8
:1027580010BD00BF9C0800200408002010B50E4CD6
:1027680086B001A8FFF7E4FF2368DB0710D42046F2
:10277800FDF793FC60B101AA01210848FFF784FF27
:102788002046FDF78FFC064A0649044800F0C4F9C4
:10279800024806B010BD00BF0008002088080020CD
:1027A800D403002011260A08002211464068FEF7CB
:1027B800DBBEF0B5164689B011220F46044600214B
:1027C80003A803F026F8304603F081F800250095A9
:1027D80081B27B6803AA3046FEF712FE20B1294673
:1027E8002046FFF73DFB03E003A92046FFF726FB41
:1027F800204609B0F0BD002211464068FEF7D4BE5D
:10280800002211464068FEF7DFBE00224068FEF74E
:10281800D3BE002281F001014068FEF7BDBE00234F
:102828001A4619464068FEF7AFBE00231A461946F5
:102838004068FEF7A1BE002211464068FEF784BE3C
:10284800002202214068FEF787BE00231A4640682E
:10285800FEF772BE024B04225A60024A1A607047A1
:10286800A009002048650A0808B5144B33B1FFF7E2
:1028780039FF03681B699847002816DC104B33B1F1
:10288800FFF79AFE03681B699847002810DC0D4B78
:102898000BB1AFF300800C4B7BB1FFF75FFF036810
:1028A8001B699847002806DC08BDAFF30080E5E700
:1028B800AFF30080EBE7AFF3008008BD0000000035
:1028C80000000000000000000000000008B5FFF74D
:1028D800CBFFFEF783FC014B186008BDB009002050
:1028E8000248034A0349121A02F088BF0040024016
:1028F8000440024030680A0807B5002300931A46CE
:102908006FF07701FEF7CEFD03B05DF804FB000021
:1029180007B543880A2B08D0502B09D1094B1B68EF
:102928003BB103B05DF804EB1847FFF7E5FF06E09D
:10293800002300931A466FF07701FEF7B3FD03B04A
:102948005DF804FBA809002038B5104C104D236829
:10295800AB42104B0CBF012200221A7002D0FFF7C5
:10296800BFFF2560FEF722FC044602F05BFF0A4B1E
:1029780013B12046AFF3008000210748FEF7D4FDCD
:10298800BDE8384000210548FEF782BD00400240FE
:102998001E1C279AAC0900200000000019290A080B
:1029A80010B504460F48FFF7A3FC28B1A4F10D03A6
:1029B800022B01D8002010BD00F054F8FFF78EF963
:1029C80008B1012CF6D9FFF7F7FDFFF7F1FD18B1B3
:1029D800A4F11203012BEDD9172C8CBF0020012084
:1029E80010BD00BFE4090020172838B504460D467D
:1029F8000AD8FF2908D0FFF7D3FF28B12946204677
:102A0800BDE83840FEF70ABC38BD38B504460D4667
:102A1800FEF70CFCFF2810D0062804D84D2323FA13
:102A280000F0C30709D42046FFF7BAFF28B12946AA
:102A38002046BDE83840FEF701BC38BD10B5044655
:102A4800FEF7F4FB0438C0B2012808D92046FFF786
:102A5800A7FF20B12046BDE81040FEF7F7BB0020D5
:102A680010BD000038B50B4D296811F001040FD1D5
:102A78002846FDF712FB58B121460748FFF71CF915
:102A88002846FDF70FFB054A0549034800F044F8BE
:102A9800014838BDB4090020B8090020D40300203B
:102AA800691C0A0813B5084C00231A4619460093F6
:102AB8002046FFF7EBF92046044A054902B0BDE875
:102AC800104000F029B800BFCC090020D403002032
:102AD800E51D0A0870B50C4C0C4E0D4D0021204622
:102AE800FFF7F2FB20460B4C3246294600F014F85B
:102AF80001212046FFF7E8FB324629462046BDE87B
:102B0800704000F009B800BFE4090020D403002099
:102B1800C1220A08F40900200B460146184602F0B3
:102B280067BDFDF7B8BA08B5FEF786FD244B1A68ED
:102B3800D0075CBF01221A60224B1A68D1075CBF1C
:102B480001221A60204B1A68D2075CBF01221A6062
:102B58001E4B1A68D0075CBF01221A601C4B1A680A
:102B6800D1075CBF01221A601A4B1A68D2075CBFF2
:102B780001221A60184B1A68D0075CBF01221A603C
:102B8800164B1A68D1075CBF01221A60144B1A68E9
:102B9800D2075CBF01221A60124B1A68D0075CBFCB
:102BA80001221A60104B1A68D1075CBF01221A6013
:102BB8000E4B1A68D2075CBF01221A60704700BF2B
:102BC800300A00202C0A0020280A0020240A0020AD
:102BD800200A00201C0A0020180A0020140A0020DD
:102BE800100A00200C0A0020080A0020040A00200D
:102BF800184B1A68D1075CBF01221A60164B1A6875
:102C0800D2075CBF01221A60144B1A68D0075CBF58
:102C180001221A60124B1A68D1075CBF01221A60A0
:102C2800104B1A68D2075CBF01221A600E4B1A6853
:102C3800D0075CBF01221A600C4B1A68D1075CBF31
:102C480001221A600A4B1A68D2075CBF01221A6077
:102C5800704700BF500A00204C0A0020480A002094
:102C6800440A0020400A00203C0A0020380A0020BC
:102C7800340A0020184B1A68D1075CBF01221A6079
:102C8800164B1A68D2075CBF01221A60144B1A68E7
:102C9800D0075CBF01221A60124B1A68D1075CBFCB
:102CA80001221A60104B1A68D2075CBF01221A6011
:102CB8000E4B1A68D0075CBF01221A600C4B1A68C9
:102CC800D1075CBF01221A600A4B1A68D2075CBFA1
:102CD80001221A60704700BF700A00206C0A0020A9
:102CE800680A0020640A0020600A00205C0A0020AC
:102CF800580A0020540A0020244B1A68D0075CBFE9
:102D080001221A60224B1A68D1075CBF01221A609F
:102D1800204B1A68D2075CBF01221A601E4B1A6842
:102D2800D0075CBF01221A601C4B1A68D1075CBF30
:102D380001221A601A4B1A68D2075CBF01221A6076
:102D4800184B1A68D0075CBF01221A60164B1A6824
:102D5800D1075CBF01221A60144B1A68D2075CBF06
:102D680001221A60124B1A68D0075CBF01221A6050
:102D7800104B1A68D1075CBF01221A600E4B1A6803
:102D8800D2075CBF01221A60704700BFA00A00206A
:102D98009C0A0020980A0020940A0020900A00202B
:102DA8008C0A0020880A0020840A0020800A00205B
:102DB8007C0A0020780A0020740A002008B5C0F3B5
:102DC800C7537F3B162B01460EDC002B024610DB57
:102DD8000B481841014205D04FF4800119411144B4
:102DE80021EA0001084608BD802BFBD102F06CF9EE
:102DF80008BD013300F00041F4D141F07E51F1E704
:102E0800FFFF7F002DE9F0418AB004460D4600F02F
:102E180093FA374B064693F900800F46B8F1FF3F07
:102E28000DD022462B462046294602F099F830B9A3
:102E3800002200232046294602F088F820B13046B7
:102E480039460AB0BDE8F0812A4B0890CDE9024521
:102E5800CDE904450193B8F1000F19D1264F4FF081
:102E680060462046294600220023CDE9066702F085
:102E780045F8002834D002230093684601F00CFB83
:102E8800A8B1089BC3B9DDE906010AB0BDE8F08125
:102E98001A4F00262046294600220023CDE906675E
:102EA80002F02CF868B1022398450093E5D1FEF7AB
:102EB800D3FB22230360E4E7FEF7CEFB089B036005
:102EC800E1E70123B8F1020F00930BD1FEF7C4FB31
:102ED800212303600A4801F0E1FACDE90601D0E7B1
:102EE80001230093684601F0D7FA0028F2D1EDE7F4
:102EF8001C03002074650A08FFFFEFC70000F0FFFD
:102F080078650A082DE9F0438BB004460D4600F0B9
:102F180007FC384B064693F900800F46B8F1FF3F8F
:102F28000ED022462B462046294602F019F8814643
:102F380030B9002200232046294601F0F3FF20B9CA
:102F4800304639460BB0BDE8F0832B4BCDF82090C6
:102F5800CDE90245CDE904450193B8F1000F19D137
:102F6800264F4FF060462046294600220023CDE92F
:102F7800066701F0C3FF002834D002230093684697
:102F880001F08AFAA8B1089BC3B9DDE906010BB0C4
:102F9800BDE8F0831A4F0026204629460022002368
:102FA800CDE9066701F0AAFF68B1022398450093AE
:102FB800E5D1FEF751FB22230360E4E7FEF74CFB63
:102FC800089B0360E1E70123B8F1020F00930BD1DE
:102FD800FEF742FB212303600A4801F05FFACDE9BE
:102FE8000601D0E701230093684601F055FA00284E
:102FF800F2D1EDE71C0300207C650A08FFFFEFC74C
:103008000000F0FF78650A082DE9F04F8DB00646FC
:103018000F4614461D4600F00FFCDFF81093CDE96B
:10302800000199F90080B8F1FF3F46D022462B46AF
:103038002046294601F094FF834600283DD13246B8
:103048003B463046394601F08BFF8246002874D152
:10305800304639460022002301F050FF002833D0C3
:10306800002200232046294601F048FF8346B8B1D4
:10307800A94A012300200021CDF828A0CDE9046742
:10308800CDE90645CDE9080103920293B8F1000F96
:103098006CD0A24B0022104619460DB0BDE8F08F47
:1030A8002046294601F0F2F938B1002200232046D3
:1030B800294601F02DFF00286AD1DDE900231046DA
:1030C80019460DB0BDE8F08FDDE9000101F0DEF929
:1030D800804600287DD0DDE900014FF0000A4FF05E
:1030E800000B52465B4601F009FF0028E5D0304648
:1030F800394601F0CBF90028DFD02046294601F0F7
:10310800C5F90028D9D099F9003083480421002254
:10311800022BCDE90467CDE90645CDE908AB03905C
:1031280002910A9204D002A801F0B6F9002847D10A
:10313800FEF792FA2223036042E000220023204691
:10314800294601F0DBFE0028B7D0744B72480022F4
:103158000121B8F1020FCDF828B0CDE90467CDE917
:103168000645CDE9082303900291A8D002A801F0F2
:1031780093F900287ED00A9B43B3FEF76DFADDE988
:1031880008230A990160104619460DB0BDE8F08F72
:10319800614999F900300122CDF828B0CDE90467DA
:1031A800CDE9064503910292002B68D05C490020C6
:1031B800022BCDE9080166D1FEF74EFA2123036000
:1031C8000A9B1BB1FEF748FA0A9B0360DDE9082356
:1031D80075E73046394601F059F900283FF47BAFCE
:1031E8002046294601F052F900283FF474AFDDE982
:1031F80000231046194601F0B3FE00286FD1464B54
:1032080099F90080039303230A90CDE90467CDE977
:1032180006450293B8F1000F3BD1DFF814B14FF027
:10322800604A0022002330463946CDE908AB01F058
:103238006FFE00283FF477AF00223A4B204629461C
:1032480001F0F4FB04460D4601F02EF902460B4648
:103258002046294601F052FE00283DD1324B4FF05E
:103268006042CDE9082399F90080B8F1020F7FF494
:103278005AAF5DE7FEF7F0F9212303607BE70023EF
:103288000024CDE9083402A801F006F9002897D1F6
:1032980092E7DFF8A0B04FF0000A00220023304682
:1032A8003946CDE908AB01F033FE0028DDD0002215
:1032B8001C4B2046294601F0B9FB04460D4601F097
:1032C800F3F802460B462046294601F017FE18B9C6
:1032D800134B0022CDE9082399F90080C5E70E4A6F
:1032E80099F900900123CDF82880CDE90467CDE94C
:1032F800064503920293B9F1000FC0D000220023C3
:103308001046194601F0BCFCB9F1020FCDE90801DD
:103318003FF452AFB7E700BF84650A080000F03FEA
:103328000000F0FF0000E03FFFFFEFC71C03002094
:10333800FFFFEF470000F07F2DE9F04FB1F5801F48
:1033480085B006460F460B465ADA024621F000447D
:10335800224300F0F7800029C0F279810022D64B81
:1033680001F064FB0B460F46D44906468B426FF0CA
:10337800350249DCC3F3130505F5152404F6647416
:1033880004F4801E8EF07F5181F440111B15A3F2C6
:10339800FF3341EA05079C1830460022C84B3946DE
:1033A80004EB1E5401F08EF9AB1CC3F31303022B7C
:1033B80082468B464FF000022FDC002301F09EFD71
:1033C800002800F0C880002C00F04A81204601F057
:1033D800C7FAA5A3D3E9002306460F4601F026FB4A
:1033E800A3A3D3E9002304460D463046394601F02D
:1033F8001DFB02460B462046294601F065F909E007
:10340800AE4900228B42B5DD32463B46304639464E
:1034180001F05AF905B0BDE8F08F4FF0804301F094
:1034280053F902460B465046594601F029FC064618
:1034380020460F4601F094FA3246CDE900013B469A
:1034480030463946CDE9026701F0F0FA02460B46EC
:103458008046894601F0EAFA87A3D3E900230646A5
:103468000F4601F0E3FA86A3D3E9002301F02CF913
:1034780032463B4601F0DAFA83A3D3E9002301F090
:1034880023F932463B4601F0D1FA81A3D3E9002360
:1034980001F01AF942464B4601F0C8FA7EA3D3E977
:1034A8000023804689463046394601F0BFFA7CA39E
:1034B800D3E9002301F008F932463B4601F0B6FA99
:1034C80079A3D3E9002301F0FFF832463B4601F027
:1034D800ADFA0B4602464946404601F0F5F8A5F517
:1034E800C223C5F5D725A3F27A4351351D43002DD4
:1034F8008046894656DD0022724B5046594601F0F7
:1035080095FA52465B4601F091FA06460F46002CA2
:1035180068D132463B464046494601F0D5F8DDE9D8
:10352800022301F083FA02460B463046394601F081
:10353800C9F802460B465046594601F0C3F805B093
:10354800BDE8F08F0022002300205F4901F098FBBE
:1035580005B0BDE8F08F56A3D3E90023504659467D
:1035680001F064FA02460B460020564901F0AAF819
:10357800524606460F465B465046594601F056FAF3
:1035880002460B463046394601F050FA06460F46C9
:10359800002C40F09B8002460B465046594601F0ED
:1035A80091F837E7002C00F0A5802FA3D3E900237A
:1035B800DDE9000101F03AFA42464B4604460D4661
:1035C8005046594601F07EF8DDE9022301F02EFA53
:1035D80027A3D3E9002306460F46DDE9000101F0E1
:1035E80025FA21E020A3D3E90023DDE9000101F059
:1035F8001DFA32463B4604460D464046494601F010
:1036080063F8DDE9022301F011FA19A3D3E90023D5
:1036180080468946DDE9000101F008FA02460B46BA
:103628004046494601F050F802460B4630463946B6
:1036380001F048F852465B4601F044F802460B4652
:103648002046294601F03EF805B0BDE8F08F024655
:103658000B4601F037F80022002301F011FBD9E6F0
:1036680000200021D6E600BF0000E0FE422EE63F23
:10367800763C7935EF39EA3D44523EDF12F1C23FDC
:10368800DE03CB966446C73F599322942449D23F20
:10369800935555555555E53F9FC678D0099AC33F70
:1036A800AF788E1DC571CC3F04FA97999999D93F87
:1036B800555555555555D53F00005043FFFFEF7FF1
:1036C8000000F03F0000E03F000050C3204601F03A
:1036D80047F90FA3D3E900238046894601F0A6F9EC
:1036E8000DA3D3E9002304460D464046494601F0A0
:1036F8009DF999E702460B465046594600F0E2FF0D
:10370800DDE9022301F092F913E700BFAFF300806F
:103718000000E0FE422EE63F763C7935EF39EA3D7F
:10372800B1F5801F2DE9F84304460D460B461ADA19
:10373800024621F00046324358D000295EDB0022C1
:10374800394B01F073F90B460D46384904468B4254
:103758006FF035020BDD22462B462046294600F045
:10376800B3FFBDE8F883314900228B42F3DC18151A
:10377800A0F2FF3010444FEAD0794844C3F313084D
:1037880001F0EEF8C9F57F73033348EA035506469E
:103798000F4620462946FFF7CFFD1DA3D3E9002396
:1037A800804689463046394601F040F91AA3D3E9E4
:1037B800002304460D464046494601F037F90246C3
:1037C8000B462046294600F07FFF15A3D3E90023C6
:1037D80004460D463046394601F028F902460B46A4
:1037E8002046294600F070FFBDE8F8830022002338
:1037F80000200F4901F044FABDE8F88302460B4661
:1038080000F060FF0022002301F03AFABDE8F883D7
:10381800362BF111F3FE593D0EE526157BCBDB3F28
:1038280000609F501344D33F00005043FFFFEF7FD9
:10383800000050C3000000002DE9F04F23F00048BD
:1038480058EA020993B03CD0714C21F00046A642D8
:1038580083460D460CDD06F1404606F5801656EA0D
:103868000B0038D183466B49584613B0BDE8F08F3A
:103878009A4696462BD0A045EDDC654CA04578D0FD
:10388800002D0F468146CDE9002376DB0024BEF1EA
:10389800000F27D15E4B984500F08B805D4B984513
:1038A80052D0BAF1804F00F0C9835B4B9A4519D1C9
:1038B800002D17DB4846394613B0BDE8F04F00F03D
:1038C8001DBDCB465846534913B0BDE8F08F0028BC
:1038D800C1D1B045D1DD514813B0BDE8F04F00F07B
:1038E800DDBD00244846394600F0CCFDBBF1000F91
:1038F8001CD0ED0F013D54EA050370D0484B9845A4
:1039080040F3948003F10473984540F30D84454BCC
:103918009E4270DDBAF1000F70DD3BA3D3E90023AE
:103928001046194601F082F883469DE726B1394BC7
:1039380025F040429A42DCD1BAF1000FC0F2B783B9
:10394800002D08DB83468FE7BAF1000FC0F25E84D2
:10395800CB46394688E706F1404606F5801656EA12
:10396800040300F08384012CECD101F1004183466B
:103978007AE7BEF1000F83D06DE72B4B98452CDC1E
:10398800A3F15473984581DD4FEA2853A3F2FF331E
:10399800142B40F35384C3F134032EFA03F202FAD2
:1039A80003F39E457FF472AF02F00102C2F10204F4
:1039B8006DE706F1404303F5801353EA0B0300F06B
:1039C8003A83184B9E4240F36783BAF1000F15DB28
:1039D800DDE900349B46214646E7022457E74A467C
:1039E80048463B46394600F06DFE02460B4601F05C
:1039F80047F9834638E7BAF1000F8EDB4FF0000B2A
:103A0800594631E7AFF300809C7500883CE4377E67
:103A18000000F07F0000F03F0000E03F78650A08F2
:103A28000000E041FFFFEF3FFFFF3F43B6F5801F77
:103A38004FF0000205DAD04B00F0F8FF0E466FF0A9
:103A48003402DFF844E33315C6F31306A3F2FF3359
:103A580046F07F57764503EB020A47F4401740F3D8
:103A6800C983C64B00229E4240F304840023CDE95B
:103A78000823CDE90C23C24B0022CDE906230AF125
:103A8800010AA7F5801700263946DDE90623CDE9A6
:103A98000A0100F017FEDDE9062380468946DDE9C4
:103AA8000A0100F011FE02460B460020B44901F05D
:103AB800E7F80A4601461346CDE90E120246494682
:103AC800404600F0B3FF8C4683467B1043F000531A
:103AD80003F5002399190020CDE904BC06460F46DA
:103AE8004FF0000B6146584632463B46CDE910BCC4
:103AF800CDE9020100F09AFF02460B4640464946CE
:103B080000F0E0FDDDE90623804689463046394667
:103B180000F0D8FD02460B46DDE90A0100F0D2FDAF
:103B2800DDE9022300F082FF02460B464046494683
:103B380000F0C8FDDDE90E2300F078FFDDE9047828
:103B4800CDE906013A4643463846414600F06EFF45
:103B580077A3D3E9002306460F4600F067FF76A354
:103B6800D3E9002300F0B0FD32463B4600F05EFF8B
:103B780073A3D3E9002300F0A7FD32463B4600F0CB
:103B880055FF71A3D3E9002300F09EFD32463B4662
:103B980000F04CFF6EA3D3E9002300F095FD3246F8
:103BA8003B4600F043FF6CA3D3E9002300F08CFDF3
:103BB8003246804689463B463046394600F036FF55
:103BC80002460B464046494600F030FFDDE9022335
:103BD80006460F46DDE9040100F076FDDDE906231F
:103BE80000F024FF32463B4600F06EFDDDE9026737
:103BF8008046894632463B463046394600F016FF35
:103C08000022604BCDE90A0100F05EFD42464B46BA
:103C180000F05AFDDDE910BC0F46DDE902015A4605
:103C28003B46CDE90EBC5E4600F000FF0022CDE920
:103C38000201544B3046394600F044FDDDE90A23C1
:103C480000F040FD02460B464046494600F03AFD6A
:103C5800DDE9042300F0EAFE324680468946DDE9C4
:103C680006013B4600F0E2FE02460B464046494646
:103C780000F02AFD8046894602460B46DDE902012E
:103C880000F022FDDDE90EBC35A3D3E90023584638
:103C9800CDE906BC5E460F4600F0C8FEDDE902230A
:103CA800CDE904013046394600F00CFD02460B46CA
:103CB8004046494600F006FD2BA3D3E9002300F057
:103CC800B5FE2BA3D3E90023804689463046394602
:103CD80000F0ACFE02460B464046494600F0F4FCB4
:103CE800DDE90C2300F0F0FC80465046894600F0E0
:103CF80037FE06460F46DDE9040142464B4600F012
:103D0800E3FCDDE9082300F0DFFC32463B4600F027
:103D1800DBFCDDE906BC324658463B46DA468B46B4
:103D280000F0D0FCDDE9082330E000BFAFF30080ED
:103D3800EF4E454A287ECA3F65DBC9934A86CD3F88
:103D480001411DA96074D13F4D268F515555D53F6E
:103D5800FFAB6FDBB66DDB3F033333333333E33F06
:103D6800000000E009C7EE3FFD033ADC09C7EE3F5B
:103D7800F5015B14E02F3EBE0000404379B60B000E
:103D88000000F03F000008408E98030000F09AFC05
:103D9800DDE9042300F096FC02460B4640464946FE
:103DA80000F090FC80468946DDE90012013C54EAA7
:103DB800050314BFD64CD74C0023CDE904340B4679
:103DC8001446CDE9023400230293DDE90245084692
:103DD8002B461146224600F075FC52465B4600F021
:103DE80025FEDDE9002306460F464046494600F019
:103DF8001DFE02460B463046394600F065FC064675
:103E08000F4622462B4650465946CDE9006700F03A
:103E18000DFE0B460246804689463046394600F07C
:103E280053FCBD4B064699420D460C4640F30E81A5
:103E380001F13F4303F5E003034340F0F081A0A301
:103E4800D3E90023DDE9000100F03EFC424682464A
:103E58008B464B463046294600F034FC02460B465A
:103E68005046594601F072F8002840F0D8812F4694
:103E78003B154FF48012A3F2FE3342FA03F32344B6
:103E8800C3F30A52A54EA2F2FF321641C3F3130B35
:103E98000020C2F1140523EA06014BF4801B0246F8
:103EA8000B46002C4BFA05FB40464946B8BFCBF100
:103EB800000B00F007FC02460B4680468946DDE908
:103EC800000100F001FC4FEA0B5A00247EA3D3E95D
:103ED800002320460D4600F0A9FD424606460F463F
:103EE8004B462046294600F0EDFB02460B46DDE92D
:103EF800000100F0E7FB76A3D3E9002300F096FD6C
:103F080075A3D3E90023804689462046294600F058
:103F18008DFD02460B464046494600F0D5FB8046DB
:103F2800894602460B463046394600F0CDFB3246FC
:103F38003B4604460D4600F0C5FB02460B4640468C
:103F4800494600F0BFFB2246804689462B4620465C
:103F5800294600F06BFD62A3D3E9002306460F460D
:103F680000F064FD60A3D3E9002300F0ABFB324608
:103F78003B4600F05BFD5EA3D3E9002300F0A4FB01
:103F880032463B4600F052FD5BA3D3E9002300F024
:103F980099FB32463B4600F049FD59A3D3E900237B
:103FA80000F092FB32463B4600F040FD02460B46CD
:103FB8002046294600F086FB06460F4602460B4679
:103FC8002046294600F032FD0022CDE900014FF0DD
:103FD80080433046394600F075FB02460B46DDE962
:103FE800000100F04DFE424606460F464B4620466D
:103FF800294600F01BFD42464B4600F065FB024691
:104008000B463046394600F05DFB22462B4600F051
:1040180059FB02460B4600203D4900F053FB8A44F9
:10402800BAF5801FC0F237815146DDE9042300F05C
:10403800FDFC834618E4F346354915E44A464846EC
:104048003B46394600F0F2FC83460DE4344B21F040
:1040580000479F4240F30181324B0B4403430CD18C
:1040680042464B4600F02EFB02460B46DDE90001B6
:1040780000F058FF00283FF4FBAE23A3D3E9002348
:10408800DDE9040100F0D2FC1FA3D3E9002300F00E
:10409800CDFC8346FFF7E8BBBAF1000FBFF6AEAC24
:1040A800DDE900349B4604F10041FFF7DDBB024621
:1040B8000B460020164900F0E3FD41E4AFF3008011
:1040C800FE822B654715973C00000000432EE63F13
:1040D800EF39FAFE422EE63F396CA80C615C20BE2F
:1040E800D0A4BE726937663EF16BD2C541BDBB3EF6
:1040F8002CDE25AF6A56113F93BDBE166CC1663FD4
:104108003E5555555555C53F59F3F8C21F6EA50183
:104118000000F03F0000F0BFFFFF8F40FFFF0F00DF
:10412800FFCB904000346F3F6F4B9E427FF763ACEC
:104138006E4B9E423FF7EEAB00226C4B00F0C2FA8A
:104148005BA3D3E9002306460F4600F06FFC5AA391
:10415800D3E90023804689463046394600F066FC9C
:10416800002282468B46624B3046394600F05EFCA0
:1041780002460B4652A1D1E9000100F0A3FA3246EB
:104188003B4600F053FC02460B460020594900F01C
:1041980099FA3246CDE902013B463046394600F0ED
:1041A80045FC02460B46DDE9020100F03FFC46A350
:1041B800D3E9002300F03AFC02460B465046594624
:1041C80000F080FA02460B4606460F46404649462E
:1041D80000F07AFA42464B46002082468B4600F0B1
:1041E80071FA02460B463046394600F06BFA8046B3
:1041F8008946D9E500220023CDE90823CDE90C231F
:104208003A4B00220026CDE906233DE44A463B46C8
:104218000020364900F034FD8346FFF725BB2CA368
:10422800D3E90023DDE9040100F000FC28A3D3E969
:10423800002300F0FBFB8346FFF716BBBEF1000F1F
:104248007FF44FABC3F1140348FA03F202FA03F305
:10425800984524D07446FFF721BB264B9F423FF771
:1042680007AEDDE902349A469B462EE602460B4627
:10427800FFF7B9BB204B4FF48026CDE9062316A3E0
:10428800D3E90023CDE9082315A3D3E90023CDE919
:104298000C23FFF7F9BB5A4600F096F9C5E602F081
:1042A8000102C2F10204FFF7F9BA00BFAFF30080C0
:1042B800000000604715F73F44DF5DF80BAE543E41
:1042C800555555555555D53FFE822B654715F73F32
:1042D8009C7500883CE4377E0000004003B8E23F4C
:1042E80006D0CF43EBFD4C3EFEFFEF3F0000F03F12
:1042F8000000D03F0000E03F0000F83F2DE9F0410A
:104308005F4E0C46B6460E407645054600F098804E
:1043180000290B46024674DD5FEA215E7FD0AEF2CB
:10432800FF3EC3F313031EF0010F43F4801363D160
:1043380000273E4603EBD2710B444FEA6E0E520043
:1043480016204FF4001174189C424FEAD2754FEAB8
:10435800420202DC1B1B66180F44013805EB4303BD
:104368004FEA5101EFD1844620244FF0004109E083
:1043780020D003EBD275013C4FEA51012B444FEAA0
:10438800420220D09E4201EB0C05F1DA002D05EB2C
:10439800010C09DBB0469542A3EB060300D9013BAB
:1043A8004646521B0844E4E7BCF1000FF2DB06F175
:1043B8000108F0E7954217D8002D05EB010C49DB01
:1043C80098460023ECE7134310D140087B1003F113
:1043D8007F5303F50013FA0703EB0E57394648BF1E
:1043E80040F00040BDE8F0813346C2E7411C35D0BB
:1043F80000F001031844E8E75B0003EBD2735200B6
:1044080096E721F000460643ECD079BB8E46D30AE6
:10441800AEF1150E5205002BF9D0DD0221D4002192
:1044280000E001465B00DC0201F10100F9D5C0F1B2
:10443800200422FA04F42343C1EB0E0E82406EE7F7
:1044480002460B4600F0F2FA2A46234600F03CF9F1
:10445800BDE8F081BCF1000FA9DAB1E701372046C9
:10446800B4E720244FF0FF310020E2E702460B4674
:1044780000F028F902460B4600F002FCB2E700BF44
:104488000000F07F21F00041704700BF41F000417B
:1044980001F58010C00F70470020704700200149C7
:1044A800704700BF0000F87FF0B5C1F30A5EAEF2B6
:1044B800FF36132E83B002460B460C464FEAD175E1
:1044C80007462EDC002E49DB3D49314103EA010055
:1044D80010432BD049080B4053EA02070CD04FF485
:1044E8008023132E24EA010143FA06F444EA010466
:1044F8000CBF4FF000470027324B214603EBC505A0
:10450800D5E90045384622462B4600F0DDF8CDE9CE
:104518000001DDE9000122462B4600F0D3F803B084
:10452800F0BD332E06DDB6F5806F45D0104619462E
:1045380003B0F0BDAEF2134E4FF0FF3121FA0EF189
:104548000842F3D049080842D6D04FF0804320EA09
:10455800010143FA0EFE4EEA0107CDE721F00041C2
:1045680001431946E4D0C3F3130343EA000CCCF12A
:10457800000343EA0C0C134B640C4FEA1C3C0CF48C
:10458800002C03EBC5036404D3E900674CEA04017B
:1045980032463B4600F098F8CDE90001DDE900011C
:1045A80032463B4600F08EF8024621F0004141EACF
:1045B800C57310461946BBE700F086F8B8E700BF98
:1045C800FFFF0F0088650A08F8B5C1F30A560446CC
:1045D8000D460B46174606BB21F00043034325D082
:1045E80000222F4B00F022FA2E4A044697420D462D
:1045F8000B462ADBC1F30A56363E40F2FE723E44B1
:10460800964228DC002E12DD23F0FF4323F4E0035A
:1046180043EA065520462946F8BD40F2FF72964205
:10462800EBD102460B4600F04FF8F8BDF8BD16F185
:10463800350F1DDA4CF250339F420CDC14A1D1E93E
:10464800000122462B4600F031F811A3D3E90023DC
:1046580000F0ECF9F8BD22460FA1D1E900012B4684
:1046680000F024F80CA3D3E9002300F0DFF9F8BD2B
:1046780023F0FF4323F4E003363643EA0655204689
:1046880029460022084B00F0D1F9F8BDAFF30080AD
:1046980059F3F8C21F6EA5019C7500883CE4377E6B
:1046A80000005043B03CFFFF0000903C03F0004383
:1046B80021F0004242EA0301704700BF81F0004147
:1046C80002E000BF83F0004330B54FEA41044FEAEF
:1046D800430594EA050F08BF90EA020F1FBF54EA8A
:1046E800000C55EA020C7FEA645C7FEA655C00F026
:1046F800E2804FEA5454D4EB5555B8BF6D420CDDF7
:104708002C4480EA020281EA030382EA000083EA79
:10471800010180EA020281EA0303362D88BF30BD19
:1047280011F0004F4FEA01314FF4801C4CEA11316F
:1047380002D0404261EB410113F0004F4FEA0333CE
:104748004CEA133302D0524263EB430394EA050F59
:1047580000F0A780A4F10104D5F1200E0DDB02FAC8
:104768000EFC22FA05F2801841F1000103FA0EF25C
:10477800801843FA05F359410EE0A5F120050EF122
:10478800200E012A03FA0EFC28BF4CF0020C43FA53
:1047980005F3C01851EBE37101F0004507D54FF060
:1047A800000EDCF1000C7EEB00006EEB0101B1F5B0
:1047B800801F1BD3B1F5001F0CD349085FEA3000F6
:1047C8004FEA3C0C04F101044FEA445212F5800F01
:1047D80080F09A80BCF1004F08BF5FEA500C50F19E
:1047E800000041EB045141EA050130BD5FEA4C0C81
:1047F800404141EB010111F4801FA4F10104E9D10A
:1048080091F0000F04BF01460020B1FA81F308BF00
:104818002033A3F10B03B3F120020CDA0C3208DDCC
:1048280002F1140CC2F10C0201FA0CF021FA02F1A7
:104838000CE002F11402D8BFC2F1200C01FA02F117
:1048480020FA0CFCDCBF41EA0C019040E41AA2BF3C
:1048580001EB0451294330BD6FEA04041F3C1CDA04
:104868000C340EDC04F11404C4F1200220FA04F024
:1048780001FA02F340EA030021FA04F345EA0301CE
:1048880030BDC4F10C04C4F1200220FA02F001FA90
:1048980004F340EA0300294630BD21FA04F0294612
:1048A80030BD94F0000F83F4801306BF81F48011AB
:1048B8000134013D4EE77FEA645C18BF7FEA655C1E
:1048C80029D094EA050F08BF90EA020F05D054EAF0
:1048D800000C04BF1946104630BD91EA030F1EBFF5
:1048E8000021002030BD5FEA545C05D140004941F9
:1048F80028BF41F0004130BD14F580043CBF01F5EC
:10490800801130BD01F0004545F0FE4141F47001D1
:104918004FF0000030BD7FEA645C1ABF19461046AC
:104928007FEA655C1CBF0B46024650EA013406BFAD
:1049380052EA033591EA030F41F4002130BD00BF6C
:1049480090F0000F04BF0021704730B54FF4806429
:1049580004F132044FF000054FF0000150E700BFAA
:1049680090F0000F04BF0021704730B54FF4806409
:1049780004F1320410F0004548BF40424FF00001F6
:104988003EE700BF42004FEAE2014FEA31014FEA39
:1049980002701FBF12F07F4393F07F4F81F0605188
:1049A800704792F0000F14BF93F07F4F704730B5F7
:1049B8004FF4607401F0004521F0004120E700BF8A
:1049C80050EA010208BF704730B54FF000050AE011
:1049D80050EA010208BF704730B511F0004502D512
:1049E800404261EB41014FF4806404F132045FEA14
:1049F800915C3FF4DCAE4FF003025FEADC0C18BFB9
:104A080003325FEADC0C18BF033202EBDC02C2F1AE
:104A1800200300FA03FC20FA02F001FA03FE40EA40
:104A28000E0021FA02F11444C1E600BF70B54FF040
:104A3800FF0C4CF4E06C1CEA11541DBF1CEA135522
:104A480094EA0C0F95EA0C0F00F0DEF82C4481EA8A
:104A5800030621EA4C5123EA4C5350EA013518BFAA
:104A680052EA033541F4801143F4801338D0A0FB97
:104A780002CE4FF00005E1FB02E506F00042E0FB44
:104A880003E54FF00006E1FB03569CF0000F18BF4A
:104A98004EF0010EA4F1FF04B6F5007F64F54074F2
:104AA80004D25FEA4E0E6D4146EB060642EAC62185
:104AB80041EA55514FEAC52040EA5E504FEACE2EF2
:104AC800B4F1FD0C88BFBCF5E06F1ED8BEF1004FF5
:104AD80008BF5FEA500E50F1000041EB045170BD71
:104AE80006F0004646EA010140EA020081EA0301B5
:104AF800B4EB5C04C2BFD4EB0C0541EA045170BDB1
:104B080041F480114FF0000E013C00F3AB8014F12A
:104B1800360FDEBF002001F0004170BDC4F1000473
:104B2800203C35DA0C341BDC04F11404C4F12005F4
:104B380000FA05F320FA04F001FA05F240EA02004F
:104B480001F0004221F0004110EBD37021FA04F685
:104B580042EB06015EEA430E08BF20EAD37070BD3F
:104B6800C4F10C04C4F1200500FA04F320FA05F09E
:104B780001FA04F240EA020001F0004110EBD370A0
:104B880041F100015EEA430E08BF20EAD37070BD10
:104B9800C4F1200500FA05F24EEA020E20FA04F3E9
:104BA80001FA05F243EA020321FA04F001F0004198
:104BB80021FA04F220EA020000EBD3705EEA430E09
:104BC80008BF20EAD37070BD94F0000F0FD101F038
:104BD8000046400041EB010111F4801F08BF013C71
:104BE800F7D041EA060195F0000F18BF704703F0AF
:104BF8000046520043EB030313F4801F08BF013D36
:104C0800F7D043EA0603704794EA0C0F0CEA1355F1
:104C180018BF95EA0C0F0CD050EA410618BF52EAAB
:104C28004306D1D181EA030101F000414FF00000B1
:104C380070BD50EA410606BF1046194652EA4306BF
:104C480019D094EA0C0F02D150EA013613D195EA33
:104C58000C0F05D152EA03361CBF104619460AD17B
:104C680081EA030101F0004141F0FE4141F4700185
:104C78004FF0000070BD41F0FE4141F4780170BD75
:104C880070B54FF0FF0C4CF4E06C1CEA11541DBFDA
:104C98001CEA135594EA0C0F95EA0C0F00F0A7F8DC
:104CA800A4EB050481EA030E52EA03354FEA013109
:104CB80000F088804FEA03334FF0805545EA13131C
:104CC80043EA12634FEA022245EA111545EA1065E4
:104CD8004FEA00260EF000419D4208BF964244F17B
:104CE800FD0404F5407402D25B084FEA3202B61A9A
:104CF80065EB03055B084FEA32024FF480104FF46E
:104D0800002CB6EB020E75EB030E22BFB61A7546E1
:104D180040EA0C005B084FEA3202B6EB020E75EB74
:104D2800030E22BFB61A754640EA5C005B084FEADC
:104D38003202B6EB020E75EB030E22BFB61A7546A9
:104D480040EA9C005B084FEA3202B6EB020E75EBB4
:104D5800030E22BFB61A754640EADC0055EA060E75
:104D680018D04FEA051545EA16754FEA06164FEAB8
:104D7800C30343EA52734FEAC2025FEA1C1CC0D164
:104D880011F4801F0BD141EA00014FF000004FF0F1
:104D9800004CB6E711F4801F04BF01430020B4F1B2
:104DA800FD0C88BFBCF5E06F3FF6AFAEB5EB030C6A
:104DB80004BFB6EB020C5FEA500C50F1000041EB67
:104DC800045170BD0EF0004E4EEA113114EB5C0434
:104DD800C2BFD4EB0C0541EA045170BD41F4801107
:104DE8004FF0000E013C90E645EA060E8DE60CEA0F
:104DF800135594EA0C0F08BF95EA0C0F3FF43BAF2C
:104E080094EA0C0F0AD150EA01347FF434AF95EAE2
:104E18000C0F7FF425AF104619462CE795EA0C0FC6
:104E280006D152EA03353FF4FDAE1046194622E793
:104E380050EA410618BF52EA43067FF4C5AE50EA6D
:104E480041047FF40DAF52EA43057FF4EBAE12E75D
:104E58004FF0FF3C06E000BF4FF0010C02E000BF3E
:104E68004FF0010C4DF804CD4FEA410C7FEA6C5C21
:104E78004FEA430C18BF7FEA6C5C1BD001B050EAC4
:104E8800410C0CBF52EA430C91EA030F02BF90EAAF
:104E9800020F0020704710F1000F91EA030F58BF6E
:104EA800994208BF90422CBFD8176FEAE37040F0D0
:104EB800010070474FEA410C7FEA6C5C02D150EA6E
:104EC800013C07D14FEA430C7FEA6C5CD6D152EA29
:104ED800033CD3D05DF8040B704700BF84461046EE
:104EE80062468C461946634600E000BF01B5FFF7ED
:104EF800B7FF002848BF10F1000F01BD4DF808EDBD
:104F0800FFF7F4FF0CBF012000205DF808FB00BF8D
:104F18004DF808EDFFF7EAFF34BF012000205DF8E7
:104F280008FB00BF4DF808EDFFF7E0FF94BF012034
:104F380000205DF808FB00BF4DF808EDFFF7CEFF35
:104F480094BF012000205DF808FB00BF4DF808ED74
:104F5800FFF7C4FF34BF012000205DF808FB00BF45
:104F68004FEA410C7FEA6C5C02D150EA013C0AD15D
:104F78004FEA430C7FEA6C5C02D152EA033C02D14F
:104F88004FF0000070474FF0010070474FEA4102B0
:104F980012F5001215D211D56FF47873B3EB625283
:104FA80012D94FEAC12343F0004343EA505311F0AA
:104FB800004F23FA02F018BF404270474FF000003C
:104FC800704750EA013005D111F0004008BF6FF07A
:104FD800004070474FF00000704700BF4A0011D2F0
:104FE80012F5001211D20DD56FF47873B3EB62523B
:104FF8000ED44FEAC12343F0004343EA505323FA47
:1050080002F070474FF00000704750EA013002D1BB
:105018004FF0FF3070474FF0000070474FEA4102F1
:10502800B2F1E04324BFB3F5001CDCF1FE5C0DD9FE
:1050380001F0004C4FEAC0024CEA5070B2F1004F48
:1050480040EB830008BF20F00100704711F0804F4B
:1050580021D113F13872BCBF01F00040704741F410
:1050680080114FEA5252C2F11802C2F1200C10FA14
:105078000CF320FA02F018BF40F001004FEAC123F8
:105088004FEAD32303FA0CFC40EA0C0023FA02F39C
:105098004FEA4303CCE77FEA625307D150EA013372
:1050A8001EBF4FF0FE4040F44000704701F0004042
:1050B80040F0FE4040F40000704700BF80F0004020
:1050C80002E000BF81F0004142001FBF5FEA4103D8
:1050D80092EA030F7FEA226C7FEA236C6AD04FEAD8
:1050E8001262D2EB1363C1BFD2184140484041401D
:1050F800B8BF5B42192B88BF704710F0004F40F4CF
:10510800000020F07F4018BF404211F0004F41F4EA
:10511800000121F07F4118BF494292EA030F3FD0B6
:10512800A2F1010241FA03FC10EB0C00C3F12003C9
:1051380001FA03F100F0004302D5494260EB400058
:10514800B0F5000F13D3B0F1807F06D340084FEAC3
:10515800310102F10102FE2A51D2B1F1004F40EBB8
:10516800C25008BF20F0010040EA03007047490020
:1051780040EB000010F4000FA2F10102EDD1B0FAEB
:1051880080FCACF1080CB2EB0C0200FA0CF0AABFE0
:1051980000EBC25052421843BCBFD040184370477E
:1051A80092F0000F81F4000106BF80F40000013284
:1051B800013BB5E74FEA41037FEA226C18BF7FEA5B
:1051C800236C21D092EA030F04D092F0000F08BF9D
:1051D8000846704790EA010F1CBF0020704712F084
:1051E8007F4F04D1400028BF40F00040704712F1C3
:1051F80000723CBF00F50000704700F0004343F028
:10520800FE4040F4000070477FEA226216BF08465D
:105218007FEA23630146420206BF5FEA412390EA20
:10522800010F40F4800070474FF0000304E000BF16
:1052380010F0004348BF40425FEA000C08BF7047C7
:1052480043F0964301464FF000001CE050EA01028B
:1052580008BF70474FF000030AE000BF50EA0102A0
:1052680008BF704711F0004302D5404261EB41018D
:105278005FEA010C02BF84460146002043F0B643B2
:1052880008BFA3F18053A3F50003BCFA8CF2083AD7
:10529800A3EBC25310DB01FA02FC634400FA02FCE0
:1052A800C2F12002BCF1004F20FA02F243EB0200E7
:1052B80008BF20F00100704702F1200201FA02FC49
:1052C800C2F1200250EA4C0021FA02F243EB02003C
:1052D80008BF20EADC7070474FF0FF0C1CEAD05280
:1052E8001EBF1CEAD15392EA0C0F93EA0C0F6FD041
:1052F8001A4480EA010C400218BF5FEA41211ED01F
:105308004FF0006343EA501043EA5111A0FB01310A
:105318000CF00040B1F5000F3EBF490041EAD371DF
:105328005B0040EA010062F17F02FD2A1DD8B3F15B
:10533800004F40EBC25008BF20F00100704790F0CA
:10534800000F0CF0004C08BF49024CEA502040EA1C
:1053580051207F3AC2BFD2F1FF0340EAC2507047E2
:1053680040F400004FF00003013A5DDC12F1190F20
:10537800DCBF00F000407047C2F10002410021FA92
:1053880002F1C2F1200200FA02FC5FEA310040F1AA
:10539800000053EA4C0308BF20EADC70704792F023
:1053A800000F00F0004C02BF400010F4000F013A5B
:1053B800F9D040EA0C0093F0000F01F0004C02BF56
:1053C800490011F4000F013BF9D041EA0C018FE7C5
:1053D8000CEAD15392EA0C0F18BF93EA0C0F0AD0CB
:1053E80030F0004C18BF31F0004CD8D180EA0100F1
:1053F80000F00040704790F0000F17BF90F0004F8A
:10540800084691F0000F91F0004F14D092EA0C0F6B
:1054180001D142020FD193EA0C0F03D14B0218BFFE
:10542800084608D180EA010000F0004040F0FE4044
:1054380040F40000704740F0FE4040F440007047E0
:105448004FF0FF0C1CEAD0521EBF1CEAD15392EA5F
:105458000C0F93EA0C0F69D0A2EB030280EA010C4F
:1054680049024FEA402037D04FF0805343EA1111E8
:1054780043EA10130CF000408B4238BF5B0042F146
:105488007D024FF4000C8B4224BF5B1A40EA0C00EB
:10549800B3EB510F24BFA3EB510340EA5C00B3EB1D
:1054A800910F24BFA3EB910340EA9C00B3EBD10F0B
:1054B80024BFA3EBD10340EADC001B0118BF5FEA5D
:1054C8001C1CE0D1FD2A3FF650AF8B4240EBC25086
:1054D80008BF20F0010070470CF0004C4CEA502047
:1054E8007F32C2BFD2F1FF0340EAC250704740F496
:1054F80000004FF00003013A37E792F0000F00F088
:10550800004C02BF400010F4000F013AF9D040EA05
:105518000C0093F0000F01F0004C02BF490011F499
:10552800000F013BF9D041EA0C0195E70CEAD15391
:1055380092EA0C0F08D142027FF47DAF93EA0C0F78
:105548007FF470AF084676E793EA0C0F04D14B025C
:105558003FF44CAF08466EE730F0004C18BF31F00E
:10556800004CCAD130F000427FF45CAF31F0004308
:105578007FF43CAF5FE700BF094B70B51C68064677
:10558800256C3DB91A20FCF727F81A222064294611
:1055980000F03FF9216C3046BDE8704000F002B8D9
:1055A8008403002010B50C46416986B001F26C7185
:1055B800036982690491016803EB4303039141681D
:1055C80002EB4202029181680191C1682046009174
:1055D80004490B4404490A440449FCF715F82046D9
:1055E80006B010BDAD650A0898650A08D1650A08B5
:1055F80010B5054C13462CB10A4601460220AFF3FC
:10560800008010BD204610BD0000000038B5074BD3
:1056180005461C68E36B1BB92420FBF7DDFFE0633C
:10562800E16B2846BDE8384000F002B8840300204A
:105638002DE9F0410C46804600F062FC2146074601
:10564800404600F061FC4669044606F26C76B307F2
:1056580005D1642296FBF2F302FB13634BB94FF4B6
:10566800C87596FBF5F305FB1365B5FA85F35B0979
:1056780000E001235F4A302505FB032500F074FA9A
:1056880000F074FA5C4B1B68F3B17B689E4205D14D
:105698003968D8F80030FA6941B90AE0304600F0B4
:1056A800BBF90028F4D14FF0FF330DE0934208DB3B
:1056B80001E0934207DABA6B9342ACBF002301239F
:1056C80002E0002300E001232362236A3C20012B2F
:1056D8000CBFF96B396A4FF4616391FBF3F603FB76
:1056E800161393FBF0F200FB123061682368891AE5
:1056F800A2681B1A921B3B2B23606160A26003DD2A
:10570800013161603C3B04E0002B03DA0139616040
:105718003C33236063683B2B03DD0132A2603C3BD2
:1057280004E0002B03DA013AA2603C336360A3680B
:10573800172B22DDE269183B0132E261A269A360FE
:105748000132062AC8BF0022A261E2682369013239
:10575800E26055F823108A4246DD01330C2B08BF5E
:105768006369A2EB0102E26005BF013300222361F5
:10577800226104BF6361E26136E0002B34DAE2693A
:105788001833013AE261A269A360013A48BF0622D0
:10579800A261E268013AE26032BB2369013B01D4AD
:1057A80023611DE00B23236163695A1E12F0030F66
:1057B800626103F26B7305D1642193FBF1F201FB83
:1057C80012324AB94FF4C87193FBF1F201FB12335C
:1057D800B3FA83F35B0900E0012303F5B673E361D1
:1057E800236955F82330E36000F0BFF92046BDE88F
:1057F800F08100BF58670A08C00A002010B5431E90
:105808000A44914204D011F8014B03F8014FF8E71C
:1058180010BD03460244934202D003F8011BFAE785
:105828007047000038B5124B05461C68A36BD3B906
:105838001820FBF7D1FE43F20E33A06303804AF62B
:10584800CD33438041F2342383804EF26D63C380AD
:105858004DF6EC630381052343810B2383810122E9
:105868000023C0E90423A36B00221D615A6138BDDF
:105878008403002010F8012B11F8013B012A28BFEE
:105888009A42F7D0D01A7047034611F8012B03F853
:10589800012B002AF9D17047024B0146186800F025
:1058A80003B800BF8403002070B5064608460C46BE
:1058B80000F00DF8451C29463046FBF7C5FE0646A4
:1058C80018B12A462146FFF799FF304670BD0346B6
:1058D80013F8012B002AFBD1181A0138704730B58C
:1058E80082B1451E013915F8013F11F8014FA34255
:1058F80006D1EC431444E04201D0002BF3D11C46FE
:10590800181B30BD104630BD2DE9F0470E468046C5
:105918003B48D0F80090354615F8014B09EB0400D8
:10592800407800F0080000F0FF0708B12E46F2E7C3
:105938002D2C03D1B51C7478012703E02B2C04BF50
:105948007478B51C13B1102B0AD153E0302C4FD109
:10595800287800F0DF00582845D16C7810230235EC
:105968004FF0FF3CBCFBF3FC03FB0CFA00266FEA8C
:105978000A0A304609EB040E9EF801E01EF0040FF7
:1059880001D0303C0BE01EF0030E1AD0BEF1010F1F
:105998000CBF4FF0370E4FF0570ECEEB0404A34266
:1059A8000FDD002E08DB604506D801D1544503DC25
:1059B80003FB0040012601E04FF0FF3615F8014BCC
:1059C800D8E7002E07DA2223C8F800304FF0FF305E
:1059D8002AB9BDE8F08707B1404272B106B1691E25
:1059E8001160BDE8F0873024002BB9D10823B7E750
:1059F8000A23B5E7302CABD0B2E7BDE8F08700BF8B
:105A08002003002013460A46014602480068FFF7B3
:105A18007BBF00BF840300202DE9F74F044600F048
:105A28006FFA40F2B1739C4240F3968040F26D15D4
:105A38006FF4F663E318A4F2B2729B1005FB02350B
:105A4800A4F26D726FF0630392FBF3F36FF4C86214
:105A58002B44A5184FF4C87294FBF2F795FBF2F5A6
:105A680002FB17471D44642394FBF3F6B7FA87FE3D
:105A7800014603FB164600F13803019304F00303C3
:105A880044604FEA5E1E00934FF0070C0B7A4A2BD6
:105A98000ED14B69009AEC1802B906B927B93B2B0D
:105AA800D4BF0023012300E000232344013B3FE04F
:105AB800442B02D14B692B443AE0009B2BB9002EB2
:105AC8000CBFF0464FF0010800E0F046A946244B11
